:020000040800F2
:10000000180D002045010008B9390008C332000866
:10001000B5390008210B00088541000800000000E8
:10002000000000000000000000000000213A00086D
:10003000810B000800000000F5390008233A000891
:100040005F0100085F0100085F0100085F01000810
:100050005F0100085F0100085F0100085F01000800
:100060005F0100085F0100085F0100085F010008F0
:100070005F010008250B00085F010008350B000830
:10008000450B00085F0100085F010008654100089A
:10009000754100085F0100085F0100085F0100086A
:1000A0005F010008E93A00085F0100085F010008ED
:1000B0005F0100085F0100085F0100085F010008A0
:1000C0005F0100085F0100085F0100085F01000890
:1000D0005F0100083541000845410008554100080E
:1000E0005F0100085F0100085F0100085F01000870
:1000F000193B00085F0100085F0100085F0100086C
:100100005F0100085F0100085F0100085F0100084F
:100110005F0100085F010008F93A0008093B000888
:100120005F0100085F0100085F0100085F0100082F
:10013000DFF80CD000F088FC004800478D5F000815
:10014000180D00200648804706480047FEE7FEE7F6
:10015000FEE7FEE7FEE7FEE7FEE7FEE7FEE7FEE777
:10016000913A000831010008202A04DB203A21FAE4
:1001700002F00021704721FA02F3D040C2F12002C0
:100180009140084319467047D2B201E000F8012BB4
:10019000491EFBD270470022F6E710B513460A4607
:1001A00004461946FFF7F0FF204610BDF0B480EA80
:1001B0000102D40F4200B2EB410F02D202460846C0
:1001C00011464A0042D0C30DDDB2C1F3C752AD1A89
:1001D000202D35DAC1F3160141F4000204B1524278
:1001E000C5F1200602FA06F12A411044B3EBD05FB4
:1001F00023D0C4B1012DA0EBC35009DCF0BC4FF0FB
:10020000004202EAC352DBB200F5000000F07DBA02
:10021000400000F1807000EBC350A0F1807040EA14
:10022000D170490009E0490841EAC071A0EBC35010
:1002300000F50000400800EBC350F0BC00F05CBAD1
:100240006142012202EB4101001BF6E7F0BC70475E
:1002500081F00041AAE780F00040A7E780EA0102B0
:1002600010B502F00043400022D04A001FD0010E1A
:1002700001EB1261C0F35600C2F3560240F40000D5
:1002800042F40002A0FB022000047F39140400D0D5
:10029000401C50EA124001D44000491EC2B20C0674
:1002A00004EBD010401C4008802A02D003E000205C
:1002B00010BD20F00100002900DA0020184310BD15
:1002C00030B480EA010202F0004530F0004221F033
:1002D000004013D090B1C30DD40DC2F31601C0F38A
:1002E0001600E41A41F4000140F400027D3491420A
:1002F00001D3641C00E04900002C02DA30BC00206D
:1003000070474FF400000023914201D3891A034340
:1003100040084FEA4101F7D151B1914202D14FF06B
:10032000004105E002D24FF0010101E06FF0010150
:1003300003EBC450284430BC00F0DEB92DE9FE4F79
:10034000804681EA0300C00F0C46009021F0004176
:1003500023F00045B8EB0200A94105D240462146F2
:1003600090461C460B46024623F00040104347D0FF
:10037000270DC7F30A00C3F30A510290401A0190F7
:1003800040286BDAC3F3130040F4801B00989246B8
:1003900020B10023D2EB030A63EB0B0B0198594603
:1003A000C0F14002504600F086F906460D46504620
:1003B0005946019A00F08EF910EB080061410024C3
:1003C00087EA115284EAE7731A4340D0009A62B375
:1003D000019A012A4FEA075215DC001B61EB02016A
:1003E0004FF0004202EA0752CDE90042001C41F5FD
:1003F000801132462B4600F0D1F903B0BDE8F08FF2
:1004000040462146F9E7001B61EB0201001C41F563
:10041000801300185B412018A2F5001747EB030179
:1004200040EAD570B6196D4111E06D084FEA360605
:1004300045EAC0754FEA0752001B61EB0201001C40
:1004400041F5801149084FEA300000195141324608
:100450002B4603B0BDE8F04F00F091B9009801229F
:1004600040000023D0EB020263EBE07300982146CA
:100470004FEAE074B8EB000061EB0401E9E783F0B8
:1004800000435BE781F0004158E72DE9FE4F81EA28
:10049000030404F0004421F0004100944FF0000BED
:1004A00023F0004350EA01045ED052EA03045BD01B
:1004B000C3F30A54C1F30A552C44A4F2F334019453
:1004C000A0FB0254C1F3130141F48011C3F31303E1
:1004D00043F4801301FB024400FB034E840A970A95
:1004E00044EA815447EA8357A4FB076802958D0AC2
:1004F00005FB07854FEA932C04FB0C542705029D4E
:100500004FEA065847EA1637B5EB08056EEB070CBD
:10051000870E920E47EA811742EA8312A7FB020177
:10052000B6EB0B0164EB00042B0D43EA0C335E18B1
:1005300044EB1C50DA465146E7FB0201C5F31304B5
:100540004FEA0B3343EA14534FEA0432019C43EA67
:100550000603A4F10C040294009CCDE900B400F061
:100560001DF903B0BDE8F08F00200146F9E700F067
:10057000004220F00040C10DC0F3160040F400001E
:100580007F2901DA00207047962903DCC1F196012A
:10059000C84001E096398840002AF4D040427047B4
:1005A00000F0004230F000400AD0C10D01F560714A
:1005B000C0F3160042EA0151C208400711437047D8
:1005C00000200146704701F0004330B421F00041A3
:1005D00050EA010206D00A0DA2F56072C1F31301C0
:1005E000002A02DC30BC00207047440F44EAC104FA
:1005F000C100E01830BC00EBC25000F07DB8000034
:10060000002801DBC0F10040002901DBC1F10041FD
:1006100081427047002801DBC0F10040002901DB66
:10062000C1F100418842704730B50B4601460020B9
:100630002022012409E021FA02F59D4205D303FAA4
:1006400002F5491B04FA02F52844151EA2F1010225
:10065000F1DC30BD2DE9F05F0546002092469B4657
:1006600088460646814640241BE0284641464746C8
:100670002246FFF779FD53465A46C01A914110D3DE
:1006800011461846224600F016F82D1A67EB0108AD
:100690004F4622460120002100F00DF817EB00091B
:1006A0004E41201EA4F10104DFDC484631462A46B3
:1006B0004346BDE8F09F202A04DB203A00FA02F10D
:1006C000002070479140C2F1200320FA03F3194340
:1006D00090407047202A06DBCB17203A41FA02F0FF
:1006E00043EAE07306E041FA02F3D040C2F120028F
:1006F00091400843194670470029A8BF7047401C25
:10070000490008BF20F00100704710B4B0FA80FC27
:1007100000FA0CF050EA010404BF10BC704749B164
:10072000CCF1200421FA04F411FA0CF118BF0121D4
:1007300021430843A3EB0C01CB1D4FEA00614FEAB4
:10074000102042BF002010BC704700EBC350104483
:100750000029A4BF10BC7047401C490008BF20F00E
:10076000010010BC7047420005D0C0F3C75252428E
:10077000914201DC0020704700EBC150704710B57A
:10078000141E73F1000408DA401C41F100019218B4
:100790005B411A4301D120F0010010BD2DE9F04D5D
:1007A00092469B4611B1B1FA81F202E0B0FA80F2B2
:1007B00020329046FFF77FFF04460F4640EA0A00CA
:1007C00041EA0B0153465A46084313D0114653EAF7
:1007D000010019D0C8F140025046FFF7C5FC05469C
:1007E0000E46504659464246FFF765FF084305D07E
:1007F000012004E020463946BDE8F08D0020054385
:1008000046EAE0762C4337430A986305E40AA0EBF6
:1008100008000022FD0A44EA47540A3002D50020AD
:100820000146E9E7010510196941DDE908450019AC
:100830006941BDE8F04DA2E72DE9F04D81EA0304DE
:1008400004F0004B21F0004514464FF0000A23F05D
:10085000004150EA050220D054EA01021DD0C5F340
:100860000A570246C5F31303C1F31300C1F30A5636
:1008700040F4801543F48013A7EB0608101BD646FE
:1008800008F2FD3873EB050002D308F1010801E01E
:1008900092185B41B8F1000F03DA00200146BDE871
:1008A000F08D00204FF48011064684460EE0171BA1
:1008B00073EB050705D3121B63EB050306434CEAF4
:1008C000010C49084FEA300092185B4150EA0107D9
:1008D000EDD152EA030012D082EA040083EA050156
:1008E000084305D0101BAB4106D20122002306E0CD
:1008F00000224FF0004302E06FF0010253101AEBA8
:1009000006004CEB085110EB0A0041EB0B01BDE86F
:10091000F04DFFF734BF70B521F0004303430CD016
:10092000C1F30A550024D5EB040564EB0403D61784
:10093000AD1AB34102DB0020014670BD201841EB27
:10094000025170BD2DE9F04D00231A461B1A8A4151
:1009500003DB00200146BDE8F08DC1F30A52C1F36C
:10096000130141F480154FF0000BD10702D100189C
:100970006D41521E0027044640F2FF11384601EB3C
:10098000620A3E468046024600204FF48011FFF77F
:10099000EBFBC2197141BB1846EB0100B4EB030C31
:1009A00075EB000C04D3E41A65EB000517460E4600
:1009B000241908F101006D4180463428E3DDF9195E
:1009C00046EB0600091BA84103D24FF0FF32134645
:1009D00001E0002213461BEB070046EB0A51BDE87D
:1009E000F04DFFF7CCBEC1F30A52C1F3130140F240
:1009F000FF3341F480119A4202DA00200146704729
:100A000040F233439A42A2F2334202DC5242FFF7F1
:100A1000ABBBFFF750BE000030B5041E71F10004FF
:100A200004DB4FF00044404264EB0101141E73F1FB
:100A3000000405DB1C464FF00043524263EB040305
:100A4000994208BF904230BD064C074D06E0E06871
:100A500040F0010394E8070098471034AC42F6D305
:100A6000FFF76AFB6865000888650008F0B4002895
:100A700002DCF0BC00207047C0F3C751C0F3160081
:100A800040F40000CA0701D14000491E3F2202EB9A
:100A90006105002211464FF4000626FA01F31344C3
:100AA000D418844201D8001B1A464000491C17295B
:100AB000F3DD5100814202D24FF0FF3100E000210E
:100AC00002EBC550F0BCFFF717BE70B58C1810F8DC
:100AD000015B15F0070301D110F8013B2A1106D183
:100AE00010F8012B03E010F8016B01F8016B5B1E9D
:100AF000F9D12B0705D40023521E0DD401F8013B78
:100B0000FAE710F8013BCB1A921C03E013F8015BE3
:100B100001F8015B521EF9D5A142D8D3002070BD67
:100B200000BFFEE710B5024800F034FD10BD000024
:100B30002C08002010B5024800F02CFD10BD00006C
:100B4000A407002010B5024800F024FD10BD0000ED
:100B5000E807002030B590F840500124AC40C56B48
:100B60006C60046863604468102C04D10468A2605F
:100B70000468E16003E00468A1600468E26030BDDD
:100B80007047704710B5024692F82030012B01D013
:100B9000022B06D110684069084314686061002088
:100BA00010BD506A40F4802050620120F8E7F0B593
:100BB00004460A46216894F82050012D01D0022DE8
:100BC00074D1D1F8000240F00100C1F80002107D9C
:100BD00000F01F06012000FA06F3D1F81C0298432A
:100BE000C1F81C02D069C8B9D1F80C029843C1F809
:100BF0000C02908880B2968940EA064601F5107092
:100C0000576940F83760108880B2168940EA064676
:100C100001F51070576900EBC7004660D0690128E4
:100C200019D1D1F80C021843C1F80C02908880B297
:100C3000168840EA064601F51070576940F837609B
:100C4000908980B2168940EA064601F5107057690E
:100C500000EBC7004660906928B9D1F804029843B8
:100C6000C1F8040204E0D1F804021843C1F80402F8
:100C7000106928B9D1F814029843C1F8140204E0AD
:100C8000D1F814021843C1F81402106A012804D1E3
:100C9000D1F81C021843C1F81C02D1F8000220F060
:100CA0000100C1F800020020F0BDFFE7606A40F4D7
:100CB000802060620120F7E7704770B5044694F821
:100CC0002050012D01D0022D7CD151B92068C0687F
:100CD00000F0030080B9606A40F4001060620120F7
:100CE00070BD2068006900F0030028B9606A40F414
:100CF000001060620120F3E7206800F5D87000EB77
:100D00000110006800F004009060906840B920680D
:100D100000F5D87000EB01100068400D106007E08E
:100D2000206800F5D87000EB01100068C008506022
:100D3000206800F5D87000EB0110006800F0020098
:100D40004008D060206800F5D87000EB01104068C2
:100D500000F00F001061206800F5D87000EB011062
:100D6000406800F47F40000A9061206800F5D87068
:100D700000EB01104068000C5061206800F5D8704D
:100D800000EB011080681870206800F5D87000EB47
:100D90000110806800F47F40000A5870206800F558
:100DA000D87000EB0110806800F47F00000C987090
:100DB000206800F5D87000EB01108068000ED87034
:100DC000206800E031E000F5D87000EB0110C06849
:100DD0001871206800F5D87000EB0110C06800F4AD
:100DE0007F40000A5871206800F5D87000EB0110B0
:100DF000C06800F47F00000C9871206800F5D8707E
:100E000000EB0110C068000ED87131B92068C068CD
:100E100040F020002668F06005E02068006940F09E
:100E200020002668306100205AE7606A40F4802084
:100E30006062012054E72DE9F05F04460025206838
:100E400046692068D0F80490206887682068D0F848
:100E50000CA02068D0F810B02068D0F8188006F0F8
:100E60000100002855D007F00100C0B10120216821
:100E7000886007F0020018B1204600F0B0FA0EE0DA
:100E800007F0040010B145F4006508E007F0080021
:100E900010B145F4805502E0204600F09FFA07F4B7
:100EA0008070C8B14FF480702168886007F40070CA
:100EB00018B1204600F095FA0EE007F4806010B1FA
:100EC00045F4005508E007F4006010B145F4804592
:100ED00002E0204600F084FA07F48030C8B14FF4F5
:100EE00080302168886007F4003018B1204600F097
:100EF0007AFA0EE007F4802010B145F4004508E0CE
:100F000007F4002010B145F4803502E0204600F0DF
:100F100069FA06F0080038B10AF0100020B145F473
:100F2000007510202168C86006F0040040B10AF086
:100F3000080028B108202168C860204600F0B0F9F8
:100F400006F0020038B12068C06800F0030010B15C
:100F5000204600F0A7F906F0400038B10BF0100071
:100F600020B145F4806510202168086106F020005A
:100F700040B10BF0080028B1082021680861204624
:100F800000F0FAF906F0100038B12068006900F0AE
:100F9000030010B1204600F0F0F906F4003040B133
:100FA00009F0100028B1102021684860204600F0A8
:100FB000E5F906F4803040B109F0080028B10820B6
:100FC00021684860204600F00FFA06F4004088B31C
:100FD00009F0040078B306F4807020B108F0010035
:100FE00008B145F0010506F4007020B108F00200D8
:100FF00008B145F0020506F4806020B108F0040055
:1010000008B145F0040506F40060A0B108F07000D6
:1010100088B108F07000402817D006DC10280BD0EB
:1010200020280CD0302819D10CE0502810D060288E
:1010300014D110E01DE019E045F008050FE045F07F
:1010400010050CE045F0200509E045F0400506E0FC
:1010500045F0800503E045F4807500E000BF00BF67
:101060002068806920F07000216888610420216870
:1010700048602DB1606A284360622046FFF71CFE7D
:10108000BDE8F09F70B504460CB9012070BD94F81E
:10109000200010B9204600F0AFF82068006820F06A
:1010A00002002168086000F097FE05460DE000F0A0
:1010B00093FE401B0A2808D9606A40F40030606241
:1010C000052084F820000120E0E72068406800F057
:1010D00002000028EBD12068006840F00100216880
:1010E000086000F079FE05460DE000F075FE401B3B
:1010F0000A2808D9606A40F400306062052084F84C
:1011000020000120C2E72068406800F001000028AC
:10111000EBD0207E012806D12068006840F08000D6
:101120002168086005E02068006820F080002168E0
:101130000860607E012806D12068006840F0400009
:101140002168086005E02068006820F04000216800
:101150000860A07E012806D12068006840F02000C9
:101160002168086005E02068006820F02000216800
:101170000860E07E012806D12068006820F0100099
:101180002168086005E02068006840F010002168D0
:101190000860207F012806D12068006840F0080020
:1011A0002168086005E02068006820F008002168D8
:1011B0000860607F012806D12068006840F00400C4
:1011C0002168086005E02068006820F004002168BC
:1011D0000860D4E9020108432169084361690843B2
:1011E0006168491E08432168C861002060620120CF
:1011F00084F82000002049E710B586B0044600209E
:1012000002900390049005902249206888423ED1C4
:1012100000BF2148C06940F000701F49C8610846FE
:10122000C06900F00070019000BF00BF00BF084619
:10123000806940F0040088610846806900F004007D
:10124000019000BF00BFC8140290002003900490DA
:1012500002A9124800F012FC4FF4805002900220C4
:1012600003900320059002A90C4800F007FC00221F
:101270001146132000F033FE132000F023FE00225D
:101280001146142000F02BFE142000F01BFE06B0C7
:1012900010BD000000640040001002400008014042
:1012A000704700007CB504463149206888425CD113
:1012B000304BA3F11C0200212046FFF7FEFC2D4815
:1012C0001C38406841F21031884211D029481C383E
:1012D0004068491C88420BD026481C384068491C8D
:1012E000884205D023481C384068491C88423CD1BC
:1012F00020481C3840680A21B0FBF1F201FB1205BE
:10130000042D00DB7CBD1B481C38007F8DF80400D9
:1013100018481C38407F8DF8050016481C38807F1F
:101320008DF8060013481C38C07F8DF8070011485F
:101330001C3890F820008DF800000E481C3890F8FA
:1013400021008DF801000B481C3890F822008DF820
:10135000020008481C3890F823008DF80300284646
:10136000DDE9002104F066F900BF00BFCAE7000014
:10137000006400408C08002070477047704770B5CB
:10138000044694F82000012822D1022084F820008D
:101390002068006820F001002168086000F01CFD52
:1013A00005460DE000F018FD401B0A2808D9606AC8
:1013B00040F400306062052084F82000012070BDF8
:1013C0002068406800F001000028EBD16062F6E779
:1013D000606A40F4002060620120F0E770477047C7
:1013E00070477047704770477047000070B50446FB
:1013F000002594F82100022803D00420A0630125D1
:10140000C1E02068006820F00E00216808602068B4
:10141000006820F00100216808605C49206888426B
:1014200052D95A4978392068884201D1012047E0D1
:10143000564964392068884201D1102040E0534960
:1014400050392068884201D1801539E04F493C3934
:101450002068884201D1801432E04C492839206844
:10146000884202D14FF480302AE04849143920687C
:10147000884202D14FF4801022E04449206888421B
:1014800001D140041CE042492068884201D101207A
:1014900016E03F4914312068884201D110200FE046
:1014A0003B4928312068884201D1801508E038493D
:1014B0003C312068884201D1801401E04FF4803033
:1014C0003349091F086051E0304978392068884263
:1014D00001D1012047E02D4964392068884201D1BB
:1014E000102040E0294950392068884201D18015F8
:1014F00039E026493C392068884201D1801432E025
:10150000224928392068884202D14FF480302AE0ED
:101510001E4914392068884202D14FF4801022E01D
:101520001A492068884201D140041CE0184920680B
:10153000884201D1012016E0154914312068884203
:1015400001D110200FE0124928312068884201D1D2
:10155000801508E00E493C312068884201D1801492
:1015600001E04FF48030094980394860012084F857
:10157000210000BF002084F8200000BF606B10B184
:101580002046616B8847284670BD000080000240FD
:101590000804024070B50446E06B056820680668E0
:1015A00094F84010042088402840002875D006F0A8
:1015B00004000028FAD02068006800F0200028B954
:1015C0002068006820F0040021680860D549206880
:1015D000884254D9D34978392068884201D10420FF
:1015E00049E0D04964392068884201D1402042E076
:1015F000CC4950392068884201D100153BE0C949E7
:101600003C392068884202D14FF4804033E0C5491C
:1016100028392068884202D14FF480202BE0C1494C
:1016200014392068884202D14FF4800023E0BD497C
:101630002068884201D1C0041DE0BB49206888426F
:1016400001D1042017E0B84914312068884201D143
:10165000402010E0B44928312068884201D10015AB
:1016600009E0B1493C312068884202D14FF4804002
:1016700001E04FF48020AC49091F086054E0A949FB
:1016800078392068884201D104204AE0A5496439AC
:101690002068884202D1402043E04CE0A149503903
:1016A0002068884201D100153BE09E493C39206802
:1016B000884202D14FF4804033E09A4928392068AB
:1016C000884202D14FF480202BE0964914392068DB
:1016D000884202D14FF4800023E09249206888427A
:1016E00001D1C0041DE090492068884201D1042046
:1016F00017E08D4914312068884201D1402010E064
:10170000894928312068884201D1001509E08649BD
:101710003C312068884202D14FF4804001E04FF410
:101720008020804980394860E06A002802D0204645
:10173000E16A8847F4E094F840100220884028408D
:10174000002871D006F002000028FAD02068006856
:1017500000F0200040B92068006820F00A002168ED
:101760000860012084F821006E492068884254D91D
:101770006C4978392068884201D1022049E06949E2
:1017800064392068884201D1202042E065495039FF
:101790002068884201D140153BE062493C3920680D
:1017A000884202D14FF4005033E05E492839206866
:1017B000884202D14FF400302BE05A491439206896
:1017C000884202D14FF4001023E056492068884235
:1017D00001D180041DE054492068884201D10220D3
:1017E00017E0514914312068884201D1202010E0CF
:1017F0004D4928312068884201D1401509E04A4905
:101800003C312068884202D14FF4005001E04FF48F
:1018100000304549091F086054E042497839206882
:10182000884202D102204AE057E03E4964392068EC
:10183000884201D1202042E03A495039206888424C
:1018400001D140153BE037493C392068884202D13C
:101850004FF4005033E0334928392068884202D1E0
:101860004FF400302BE02F4914392068884202D110
:101870004FF4001023E02B492068884201D18004F6
:101880001DE029492068884201D1022017E026493D
:1018900014312068884201D1202010E022492831EB
:1018A0002068884201D1401509E01F493C31206879
:1018B000884202D14FF4005001E04FF40030194942
:1018C0008039486000BF002084F8200000BFA06A73
:1018D00030B32046A16A884722E094F840100820DF
:1018E00088402840E0B106F00800C8B120680068D0
:1018F00020F00E002168086094F840100120884014
:10190000E16B48600120A06384F8210000BF002043
:1019100084F8200000BF206B10B12046216B88475F
:1019200070BD000080000240080402400146002211
:1019300009B9012070471E4B086898420BD21D4B15
:101940000868C01A1423B0FBF3F08000086419483B
:101950000838C8630AE0164B0868C01A1423B0FBA5
:10196000F3F08000086412480838C863022081F848
:1019700021000868026843F6F0708243D1E9010350
:101980001843CB6818430B6918434B6918438B699C
:101990001843CB691843024308680260002088633B
:1019A000012081F82100002081F8200000BFC1E75C
:1019B00008040240080002402DE9F04104460D46AB
:1019C00016461F464FF0000800BF94F8200001287B
:1019D00002D10220BDE8F081012084F8200000BF80
:1019E00094F8210001282CD1022084F82100002045
:1019F000A0632068006820F00100216808603B4671
:101A0000324629462046FFF7A5F8E06A30B1206843
:101A1000006840F00E00216808600BE02068006854
:101A200020F00400216808602068006840F00A0087
:101A3000216808602068006840F0010021680860A3
:101A400006E000BF002084F8200000BF4FF002082D
:101A50004046BFE770B5044600F0BEF9064625468D
:101A6000681C10B104480078054400BF00F0B4F9C8
:101A7000801BA842FAD370BD080000202DE9F8476A
:101A800002460024002000258446002700237BE135
:101A90004FF0010808FA03F4D1F8008008EA0400C6
:101AA000A0427DD1DFF8ECA2D1F80480A8EB0A09AE
:101AB000D0453AD014DCB8F1030F50D009DCB8F1AE
:101AC000000F31D0B8F1010F1CD0B8F1020F49D18D
:101AD00020E0B8F1110F18D0B8F1120F42D11EE07A
:101AE000B9F5881F25D006DCB9F5803F20D0B9F5BF
:101AF000801F37D11AE0B9F5001F18D0B9F5041FBF
:101B000030D117E0D1F80CC02DE0D1F80C8008F1ED
:101B1000040C28E0D1F80C8008F1080C23E0D1F87F
:101B20000C8008F10C0C1EE000BF00BF00BF00BF1E
:101B300000BF00BFD1F80880B8F1000F02D14FF00C
:101B4000040C0BE0D1F80880B8F1010F03D14FF07D
:101B5000080C146102E04FF0080C546103E04FF0F0
:101B6000000C00E000BF00BFFF2801D8904601E054
:101B700002F104084646FF2802D84FEA830803E032
:101B8000A3F108084FEA88084746D6F800804FF0CE
:101B90000F0909FA07F928EA09080CFA07F900E021
:101BA0007AE048EA0908C6F80080D1F8048008F015
:101BB0008058B8F1805F6FD100BFDFF8DC81D8F8C2
:101BC000188048F00108DFF8D091C9F81880C8469D
:101BD000D8F8188008F00108CDF8008000BF00BFD9
:101BE0004FEAB9384FEA930958F829504FEA8378F9
:101BF0004FEA18794FF00F0808FA09F825EA0805A6
:101C0000DFF89881424502D14FF0000824E0DFF868
:101C10009081424502D14FF001081DE0DFF8848138
:101C2000424502D14FF0020816E0DFF87C814245C0
:101C300002D14FF003080FE0DFF87081424502D176
:101C40004FF0040808E0DFF86881424502D14FF008
:101C5000050801E04FF006084FEA83794FEA197949
:101C600008FA09F848EA0505DFF848814FEA9309C0
:101C700048F82950D1F8048008F48038B8F5803F3E
:101C80000BD1DFF83481D8F8008048EA0008DFF88B
:101C90002891C9F800800AE075E0DFF81C81D8F8C7
:101CA000008028EA0008DFF81091C9F80080D1F818
:101CB000048008F40038B8F5003F0ED1DFF8F88052
:101CC00008F10408D8F8008048EA0008DFF8E89036
:101CD00009F10409C9F800800DE0DFF8DC8008F1A3
:101CE0000408D8F8008028EA0008DFF8CC9009F151
:101CF0000409C9F80080D1F8048008F48018B8F508
:101D0000801F0ED1DFF8B08008F10808D8F80080F5
:101D100048EA0008DFF8A09009F10809C9F8008036
:101D20000DE0DFF8948008F10808D8F8008028EA70
:101D30000008DFF8849009F10809C9F80080D1F89B
:101D4000048008F40018B8F5001F0ED1DFF8688091
:101D500008F10C08D8F8008048EA0008DFF858902D
:101D600009F10C09C9F800800DE0DFF84C8008F19A
:101D70000C08D8F8008028EA0008DFF83C9009F148
:101D80000C09C9F800805B1C102BFFF481AEBDE884
:101D9000F887000000001110001002400008014008
:101DA000000C0140001001400014014000180140E7
:101DB000001C0140080001400004014002469368F5
:101DC0000B400BB1012000E0002070470AB1016117
:101DD00001E00B0403617047014800687047000090
:101DE00000000020034800680349097808440149BD
:101DF00008607047000000200800002010B5084867
:101E0000006840F0100006490860032000F0A6F8C2
:101E1000002000F007F800F02BF8002010BD0000B3
:101E20000020024070B504460E4800784FF47A71E5
:101E3000B1FBF0F00C490968B1FBF0F5284600F061
:101E400019FC08B1012070BD102C07D200222146D8
:101E5000501E00F044F80548046001E00120F2E75C
:101E60000020F0E7080000200C0000200400002003
:101E700008B500BF1148806940F001000F49886132
:101E80000846806900F00100009000BF00BF00BF5D
:101E90000846C06940F08050C8610846C06900F03B
:101EA0008050009000BF00BF00BF0549486820F087
:101EB000E06040F00070486000BF08BD00100240C4
:101EC0000000014000BF00F01F02012191404209C3
:101ED000920002F1E022C2F8001100BF70472DE924
:101EE000F05F80460D461646002701F067FD074665
:101EF00039462A46334601F00700C0F1070ABAF115
:101F0000040F02D94FF0040A01E0C0F1070AD146DC
:101F100000F1040ABAF1070F02D24FF0000A01E003
:101F2000A0F1030AD4464FF0010A0AFA09FAAAF10D
:101F3000010A0AEA020A0AFA0CFA4FF0010B0BFA3C
:101F40000CFBABF1010B0BEA030B4AEA0B04214635
:101F5000404601F03BFDBDE8F09F000000BF00F0EF
:101F60000702064B19684FF6FF031940044B0B4359
:101F700043EA0221014B196000BF70470CED00E0FD
:101F80000000FA0570B504460D4600266D4800684D
:101F900000F00700A8420ED26A48006820F007004F
:101FA0002843684908600846006800F00700A84216
:101FB00001D0012070BD207800F0020002281DD160
:101FC000207800F00400042805D15F48406840F400
:101FD000E0605D494860207800F00800082805D1DD
:101FE0005948406840F46050574948605648406836
:101FF00020F0F000A168084353494860207800F0C1
:10200000010000285DD06068012806D14E480068B4
:1020100000F4003090B90120CCE76068022806D1B6
:102020004948006800F0007040B90120C2E7464806
:10203000006800F0020008B90120BBE74248406890
:1020400020F00300616808433F494860FFF7C4FE81
:1020500006466068012810D108E0FFF7BDFE801B2E
:1020600041F28831884201D90320A3E7364840680D
:1020700000F00C000428F0D123E06068022810D1A1
:1020800008E0FFF7A9FE801B41F28831884201D9A0
:1020900003208FE72C48406800F00C000828F0D19E
:1020A0000FE008E0FFF798FE801B41F2883188427C
:1020B00001D903207EE72448406800F00C00002886
:1020C000F0D12048006800F00700A8420ED91D4852
:1020D000006820F0070028431A4908600846006895
:1020E00000F00700A84201D0012063E7207800F04B
:1020F0000400042807D11448406820F4E060E16837
:10210000084311494860207800F00800082808D1E9
:102110000D48406820F46050216940EAC1000A4936
:10212000486000F03DF808494968C1F30311074AC7
:10213000515CC840064908600020FFF773FE00208C
:1021400038E700000020024000100240AA640008A6
:102150000C00002001480068704700000C000020BF
:1021600000B5FFF7F7FF04494968C1F30221034AAC
:10217000515CC84000BD000000100240BA64000875
:1021800000B5FFF7E7FF04494968C1F3C221034ADC
:10219000515CC84000BD000000100240BA64000855
:1021A000F0B585B00FF26C0C9CE8E01001A8A0E837
:1021B000E0101CA52D6800950021002200230024BA
:1021C0000020194D696801F00C05F5B1042D02D00D
:1021D000082D19D101E0154819E001ADC1F383467E
:1021E000AC5D01F4803555B10F4D6D68C5F34045C8
:1021F0001DF805200D4D6543B5FBF2F302E00C4DD3
:1022000004FB05F3184602E000BF084800BF00BF0A
:1022100005B0F0BD02030405060708090A0B0C0D02
:102220000E0F1010010200000010024000127A0090
:1022300000093D00F8B504460025207800F00100B3
:10224000002878D0F848406800F00C0004280CD032
:10225000F548406800F00C00082811D1F2484068A9
:1022600000F48030B0F5803F0AD1EF48006800F4F8
:10227000003000285FD0606800285CD10120F8BDE4
:1022800000BF6068B0F5803F06D1E748006840F4C1
:102290008030E549086028E0606858B9E248006885
:1022A00020F48030E04908600846006820F480206F
:1022B00008601AE06068B0F5A02F0BD1DA4800681A
:1022C00040F48020D84908600846006840F4803017
:1022D00008600AE0D448006820F48030D2490860E1
:1022E0000846006820F48020086000BF606888B15C
:1022F000FFF772FD054606E0FFF76EFD401B642800
:1023000001D90320BBE7C848006800F4003000286A
:10231000F2D010E0FFF760FD054606E0FFF75CFD38
:10232000401B642801D90320A9E7BF48006800F4D6
:1023300000300028F2D1207800F00200022857D1A6
:10234000B948406800F00C0050B1B748406800F050
:102350000C00082818D1B448406800F4803098B9BF
:10236000B148006800F0020020B12069012801D0C6
:10237000012084E7AC48006820F0F800616940EA79
:10238000C100A949086033E02069E8B10120A749EC
:102390000860FFF721FD054606E0FFF71DFD401B25
:1023A000022801D903206AE79F48006800F0020074
:1023B0000028F2D09C48006820F0F800616940EAEB
:1023C000C1009949086013E0002098490860FFF7B0
:1023D00003FD054606E0FFF7FFFC401B022801D97C
:1023E00003204CE79048006800F002000028F2D17A
:1023F000207800F0080008282DD1A069B8B101208C
:102400008B490860FFF7E8FC054606E0FFF7E4FCAF
:10241000401B022801D9032031E78348406A00F0BD
:1024200002000028F2D0012001F0E6FA13E00020BB
:102430007F490860FFF7D0FC054606E0FFF7CCFCBB
:10244000401B022801D9032019E77748406A00F0B1
:1024500002000028F2D1207800F00400042873D193
:1024600000267148C06900F0805070B900BF6E4806
:10247000C06940F080506C49C8610846C06900F0EE
:102480008050009000BF00BF01266A48006800F439
:102490008070B0B96748006840F480706549086092
:1024A000FFF79AFC054606E0FFF796FC401B642800
:1024B00001D90320E3E65F48006800F4807000283B
:1024C000F2D000BFE068012806D15748006A40F00A
:1024D00001005549086227E0E06858B95248006A8F
:1024E00020F00100504908620846006A20F004000C
:1024F000086219E0E06805280BD14B48006A40F0FB
:102500000400494908620846006A40F00100086278
:102510000AE04548006A20F0010043490862084685
:10252000006A20F00400086200BFE068A0B1FFF775
:1025300053FC054609E0FFF74FFC401B41F2883190
:10254000884202D903209AE622E03748006A00F068
:1025500002000028EFD012E0FFF73EFC054608E03D
:10256000FFF73AFC401B41F28831884201D9032031
:1025700085E62D48006A00F002000028F0D1012E07
:1025800005D12948C06920F080502749C86100BFA3
:10259000E069C8B32448406800F00C00082860D007
:1025A000E069022848D1002020490866FFF714FCA2
:1025B000054606E0FFF710FC401B022801D9032066
:1025C0005DE61948006800F000700028F2D1206A2A
:1025D000B0F5803F07D11448406820F40030A1686E
:1025E000084311494860D4E9080108430E49496885
:1025F00021F4741108430C49486001200B49086616
:10260000FFF7EAFB054607E02DE0FFF7E5FB401B7F
:10261000022801D9032032E60348006800F0007068
:102620000028F2D01FE000000010024000004242EB
:10263000800442420070004000200C490866FFF709
:10264000CBFB054606E0FFF7C7FB401B022801D97C
:10265000032014E60648006800F000700028F2D15C
:1026600001E001200BE6002009E6000000004242E4
:102670000010024070B504462546681EB0F1807F08
:1026800001D301200FE0681E4FF0E02148610F21C7
:102690004FF0FF3001F09AF900204FF0E0218861FF
:1026A00007200861002070BD70477047024600BFD8
:1026B00092F83C00012801D102207047012082F8E5
:1026C0003C0000BF022082F83D001068406820F006
:1026D000700013685860106840680B6818431368EE
:1026E00058601068806820F0800013689860106857
:1026F00080684B68184313689860012082F83D0099
:1027000000BF002082F83C0000BF00BFD5E710B535
:1027100004460CB9012010BD94F83D0028B90020F2
:1027200084F83C00204600F00DF8022084F83D00BB
:10273000211D206801F0F8F9012084F83D000020F7
:10274000E9E7000038B5044659492068884216D1A7
:1027500000BF5848806940F40060564988610846C7
:10276000806900F40060009000BF00BF00221146A5
:102770001920FFF7B4FB1920FFF7A4FB97E02068AE
:10278000B0F1804F0DD100BF4A48C06940F0010050
:102790004849C8610846C06900F00100009000BFC8
:1027A00085E04549206888420DD100BF4148C06995
:1027B00040F002003F49C8610846C06900F00200CD
:1027C000009000BF73E03D49206888420DD100BFF2
:1027D0003848C06940F004003649C8610846C069FD
:1027E00000F00400009000BF61E035492068884295
:1027F0000DD100BF2F48C06940F008002D49C861C5
:102800000846C06900F00800009000BF4FE02D4965
:102810002068884216D100BF2648C06940F01000E9
:102820002449C8610846C06900F01000009000BF4C
:1028300000BF002211463620FFF751FB3620FFF77C
:1028400041FB34E020492068884216D100BF194876
:10285000C06940F020001749C8610846C06900F00F
:102860002000009000BF00BF002211463720FFF774
:1028700036FB3720FFF726FB19E014492068884211
:1028800015D100BF0B48806940F4005009498861A8
:102890000846806900F40050009000BF00BF00228D
:1028A00011462C20FFF71BFB2C20FFF70BFB38BD3C
:1028B000002C0140001002400004004000080040CD
:1028C000000C0040001000400014004000340140A3
:1028D00001460868C06840F001000A68D0600868D6
:1028E000006840F001000A6810600020704701464F
:1028F0000868C06820F001000A68D06000BF08685E
:10290000006A41F21112104050B90868006A921032
:10291000104028B90868006820F001000A681060BB
:1029200000BF002070472DE9F04104460D46002607
:1029300000BF94F83C00012802D10220BDE8F081DC
:10294000012084F83C0000BF022084F83D0020688C
:10295000866826F0770626F47F4620688660286819
:1029600050283BD00CDC202860D004DC002853D059
:10297000102865D155E030285DD0402860D141E075
:10298000602835D070280DD0B0F5805F03D0B0F549
:10299000005F55D115E02068806820F007002168AD
:1029A00088604EE0D5E902136A68206801F008F9F2
:1029B0002068866826F0770646F0770620688660ED
:1029C0003FE0D5E902136A68206801F0F9F8206851
:1029D000806840F480402168886032E0EA68696875
:1029E000206801F055F95021206801F0F5F828E041
:1029F000EA686968206801F060F96021206801F0E8
:102A0000EBF81EE0EA686968206801F041F94021AE
:102A1000206801F0E1F814E00021206801F0DCF802
:102A20000FE01021206801F0D7F80AE0202120688B
:102A300001F0D2F805E03021206801F0CDF800E087
:102A400000BF00BF012084F83D0000BF002084F8D3
:102A50003C0000BF00BF71E7704710B50446206816
:102A60000069C0F34000D8B12068C068C0F34000DE
:102A7000B0B16FF002002168086101202077206862
:102A8000806900F0030018B12046FFF7E5FF05E07C
:102A9000204600F0ADF8204600F0ABF8002020778B
:102AA00020680069C0F38000D8B12068C068C0F316
:102AB0008000B0B16FF00400216808610220207727
:102AC0002068806900F4407018B12046FFF7C4FF09
:102AD00005E0204600F08CF8204600F08AF800203F
:102AE000207720680069C0F3C000D8B12068C068B2
:102AF000C0F3C000B0B16FF0080021680861042085
:102B000020772068C06900F0030018B12046FFF765
:102B1000A3FF05E0204600F06BF8204600F069F8BE
:102B20000020207720680069C0F30010D8B1206829
:102B3000C068C0F30010B0B16FF0100021680861E8
:102B4000082020772068C06900F4407018B1204642
:102B5000FFF782FF05E0204600F04AF8204600F02B
:102B600048F8002020772068006900F0010058B183
:102B70002068C06800F0010030B16FF001002168EA
:102B80000861204600F036F820680069C0F3C010E4
:102B900058B12068C068C0F3C01030B16FF0800039
:102BA000216808612046FFF77FFD20680069C0F3B7
:102BB000801058B12068C068C0F3801030B16FF049
:102BC000400021680861204600F079F8206800691B
:102BD000C0F3401058B12068C068C0F3401030B155
:102BE0006FF02000216808612046FFF75EFD10BDF0
:102BF0007047704710B5044614492068884202D1D6
:102C000003F04CF920E02068B0F1804F1CD010494F
:102C10002068884218D00F492068884214D00E4995
:102C20002068884210D00D49206888420CD00C4999
:102C30002068884202D103F036F905E0094920688E
:102C4000884201D103F034F910BD0000002C01408E
:102C50000004004000080040000C0040001000404C
:102C6000001400400034014070B504460D4600BF1A
:102C700094F83C00012801D1022070BD012084F8A5
:102C80003C0000BF022084F83D002946204600F0A9
:102C9000ADFF2068C06820F040002168C86020684F
:102CA000C06820F480402168C860012084F83D009D
:102CB00000BF002084F83C0000BF00BFDDE7704784
:102CC000704700002DE9F047044620680568206839
:102CD000C668206847694FF00008C14605F00F0834
:102CE000B8F1000F0AD105F0200038B106F020003D
:102CF00020B1204601F07DF8BDE8F087B8F1000F63
:102D00006DD007F0010018B906F49070002866D065
:102D100005F0010030B106F4807018B1E06B40F0AE
:102D20000100E06305F0040030B107F0010018B1C4
:102D3000E06B40F00200E06305F0020030B107F004
:102D4000010018B1E06B40F00400E06305F00800FA
:102D500030B107F0010018B1E06B40F00800E0630B
:102D6000E06B68B305F0200028B106F0200010B138
:102D7000204601F03EF820684069C0F38019E06BFE
:102D800000F0080010B9B9F1000F22D0204601F080
:102D900006F82068406900F04000B0B12068406942
:102DA00020F0400021684861606B50B11748616BAA
:102DB0004863606BFEF71AFB10B1606B416B88478C
:102DC0000CE02046FFF77CFF08E02046FFF778FF85
:102DD00004E02046FFF774FF0020E0638CE705F075
:102DE000800030B106F0800018B1204601F038F9BB
:102DF00082E705F0400030B106F0400018B12046EF
:102E000000F0DDFF78E700BF76E70000E73C000850
:102E100010B504460CB9012010BDA06900B100E056
:102E200000BF94F8390028B9002084F83800204603
:102E300000F028F8242084F839002068C06820F4C5
:102E400000502168C860204601F026F8206800691B
:102E500020F49040216808612068406920F02A0031
:102E6000216848612068C06840F400502168C8604B
:102E70000020E063202084F8390084F83A00002024
:102E8000CAE7000010B586B0044600200290039007
:102E90000490059088492068884252D100BF874835
:102EA000806940F48040854988610846806900F463
:102EB0008040019000BF00BF00BF0846806940F01D
:102EC000040088610846806900F00400019000BF9A
:102ED00000BF48150290022003900320059002A92C
:102EE0007748FEF7CBFD4FF48060029000200390FE
:102EF000049002A97248FEF7C1FD72487249086049
:102F0000002048600021704881608021C16000215C
:102F100001614161202181610021C161FEF706FD4F
:102F200008B1FDF72EFE00BF67486063446200BF32
:102F3000002211462520FEF7D2FF2520FEF7C2FF12
:102F4000B8E062492068884252D100BF5B48C0693E
:102F500040F400305949C8610846C06900F40030A7
:102F6000019000BF00BF00BF0846806940F0040028
:102F700088610846806900F00400019000BF00BF2E
:102F800004200290022003900320059002A94C48DF
:102F9000FEF774FD0820029000200390049002A91F
:102FA0004748FEF76BFD4748143049490860002048
:102FB00048600021464881608021C1600021016194
:102FC0004161202181610021C161FEF7AFFC08B1A0
:102FD000FDF7D7FD00BF3E486063446200BF00229A
:102FE00011462620FEF77BFF2620FEF76BFF61E0EF
:102FF0003849206888425DD100BF3048C06940F43C
:1030000080202E49C8610846C06900F480200190E4
:1030100000BF00BF00BF0846806940F02000886103
:103020000846806900F02000019000BF00BF8815AD
:103030000290022003900320059002A92648FEF783
:103040001DFD4FF40070029000200390049002A92F
:103050002148FEF713FD00BF2049486820F03000EA
:1030600040F0E06040F03000486000BF154828386C
:103070001B490860002048600021194881608021B8
:10308000C160002101614161202181610021C16194
:10309000FEF74CFC08B1FDF774FD00BF10486063FB
:1030A000446200BF002211462720FEF718FF2720A8
:1030B000FEF708FF06B010BD0038014000100240C6
:1030C0000008014058000240A407002000440040CE
:1030D000E8070020004800400014014000000140C3
:1030E0002C08002077B581B00446154694F83A00C4
:1030F000202850D1029800B115B9012004B070BD4C
:1031000000BF94F83800012801D10220F6E7012021
:1031100084F8380000BF0298A062A5850020E06313
:10312000222084F83A001D48616B88621C48616B5C
:10313000C8621C48616B08630020616B486302AE83
:1031400032682368191D2B46606BFEF735FC00BF03
:10315000002000902068006800902068406800907F
:1031600000BF00BF00BF002084F8380000BF206807
:10317000C06840F480702168C8602068406940F0F1
:103180000100216848612068406940F040002168E2
:1031900048610020B2E70220B0E700004B3D000884
:1031A000913D0008FB3C000810B504460B4920681F
:1031B000884203D1002002F0E5FB0EE008492068B8
:1031C000884203D1012002F0DDFB06E005492068BA
:1031D000884202D1022002F0D5FB10BD0038014028
:1031E000004400400048004070472DE9F843044681
:1031F0000D4616461F464FF0000994F83900202866
:103200005CD105B116B90120BDE8F88300BF94F880
:103210003800012801D10220F6E7012084F83800A7
:1032200000BF0020E063212084F83900FEF7D4FDC0
:103230008146A684E6842BE0E08C401EE084A068F2
:10324000B0F5805F16D14B460022802120460097C2
:1032500000F03AFF08B10320D6E7A846B8F800000E
:10326000C0F3080021684860206908B9AD1C0FE070
:103270006D1C0DE04B46002280212046009700F097
:1032800023FF08B10320BFE715F8010B2168486050
:10329000E08C0028D0D14B460022402120460097E8
:1032A00000F012FF08B10320AEE7202084F83900B7
:1032B00000BF002084F8380000BFA5E70220A3E784
:1032C000704700BFFEE7000010B50E480E490860C9
:1032D0000C20486000210C488160C1604FF48031AF
:1032E0000161490141610021017601214176817628
:1032F000C176002101774177FDF7C4FE08B1FDF7E3
:1033000040FC10BD00640040BC04002008B500BFB4
:103310001248406940F00100104948610846406980
:1033200000F00100009000BF00BF002211460D20F8
:10333000FEF7D5FD0D20FEF7C5FD002211460F203A
:10334000FEF7CDFD0F20FEF7BDFD00221146102037
:10335000FEF7C5FD1020FEF7B5FD08BD00100240C8
:1033600000B585B00020019002900390049000BF4A
:103370009148806940F040008F4988610846806923
:1033800000F04000009000BF00BF00BF0846806909
:1033900040F0100088610846806900F0100000903D
:1033A00000BF00BF00BF0846806940F08000886110
:1033B0000846806900F08000009000BF00BF00BF99
:1033C0000846806940F0040088610846806900F082
:1033D0000400009000BF00BF00BF0846806940F0B5
:1033E000080088610846806900F00800009000BF6E
:1033F00000BF00BF0846806940F4807088610846BD
:10340000806900F48070009000BF00BF00BF0846D4
:10341000806940F0200088610846806900F0200043
:10342000009000BF00BF00224FF6FF716348FEF717
:10343000CDFC002243F6CE716148FEF7C7FC0022A6
:103440004DF2FF115F48FEF7C1FC002248F2031164
:103450005D48FEF7BBFC00224FF603615B48FEF7B8
:10346000B5FC00224FF6F0715948FEF7AFFC002280
:1034700045F6FF415748FEF7A9FC4FF6FF70019053
:1034800001200290002003900220049001A94B48E3
:10349000FEF7F4FA43F6CE7001900120029000206E
:1034A00003900220049001A94548FEF7E7FA4DF287
:1034B000FF10019001200290002003900220049050
:1034C00001A94048FEF7DAFA48F203100190012002
:1034D0000290002003900220049001A93A48FEF7D0
:1034E000CDFAF020019000200290039001A9364807
:1034F000FEF7C4FA3020019000200290039001A949
:103500002F48FEF7BBFA03200190002002900390A1
:1035100001A92F48FEF7B2FA4FF4005001900020A5
:103520000290039001A92748FEF7A8FA4FF603601E
:10353000019001200290002003900220049001A934
:103540002248FEF79BFA4FF6F0700190012002909E
:10355000002003900220049001A91D48FEF78EFA76
:1035600045F6FF40019001200290002003900220C8
:10357000049001A91748FEF781FA4FF4004001902A
:1035800000200290039001A91248FEF777FA4FF449
:10359000FE70019000200290039001A90B48FEF7F5
:1035A0006DFA082001900320029001A90848FEF757
:1035B00065FA05B000BD000000100240001801408F
:1035C00000100140001C01400008014000200140A3
:1035D000000C01400014014000B587B000200390AA
:1035E00004900590069001900290154815490860D6
:1035F0004720486000211348816040F2E731C160F4
:103600000021016141618161FFF781F808B1FDF797
:10361000B8FA4FF48050039003A90A48FFF783F9E2
:1036200008B1FDF7AEFA00200190029001A905480B
:10363000FFF73CF808B1FDF7A4FA07B000BD0000A1
:10364000002C0140E404002000B587B00020039066
:10365000049005900690019002904FF0804014492C
:103660000860482048600021114881604FF6FF71D2
:10367000C160002101618161FFF749F808B1FDF7E0
:1036800080FA4FF48050039003A90948FFF74BF9E3
:1036900008B1FDF776FA202001908020029001A960
:1036A0000348FFF703F808B1FDF76BFA07B000BD58
:1036B0002405002000B587B0142102A8FCF76BFD9B
:1036C00000200090019015481549086000204860CE
:1036D0000021134881604FF6FF71C1600021016134
:1036E0008161FFF714F808B1FDF74BFA072002904B
:1036F0001020039002A90A48FFF7B6FA08B1FDF7B7
:1037000040FA202000908020019069460448FEF78E
:10371000CDFF08B1FDF735FA07B000BD0004004049
:103720006405002000B587B0142102A8FCF733FD22
:10373000002000900190154815490860002048605D
:103740000021134881604FF6FF71C16000210161C3
:103750008161FEF7DCFF08B1FDF713FA0720029044
:103760002020039002A90A48FFF77EFA08B1FDF76E
:1037700008FA202000908020019069460448FEF756
:1037800095FF08B1FDF7FDF907B000BD0008004046
:10379000A405002000B587B0142102A8FCF7FBFCAB
:1037A00000200090019015481549086000204860ED
:1037B0000021134881604FF6FF71C1600021016153
:1037C0008161FEF7A4FF08B1FDF7DBF90720029045
:1037D0003020039002A90A48FFF746FA08B1FDF726
:1037E000D0F900200090019069460548FEF75EFF81
:1037F00008B1FDF7C6F907B000BD0000000C00409D
:10380000E40500201CB50020009001900E480F49EF
:1038100008604720486000210C48816040F2E73191
:10382000C16000218161FEF772FF08B1FDF7A9F9BF
:1038300000200090019069460448FEF737FF08B168
:10384000FDF79FF91CBD0000001000402406002079
:103850001CB50020009001900E480F4908604720D9
:10386000486000210C48816040F2E731C1600021CE
:103870008161FEF74CFF08B1FDF783F9002000904D
:10388000019069460448FEF711FF08B1FDF779F988
:103890001CBD0000001400406406002000B587B085
:1038A0000020039004900590069001900290154826
:1038B000154908604720486000211348816040F2A4
:1038C000E731C1600021016141618161FEF71FFFA5
:1038D00008B1FDF756F94FF48050039003A90A4848
:1038E000FFF721F808B1FDF74CF900200190029094
:1038F00001A90548FEF7DAFE08B1FDF742F907B065
:1039000000BD000000340140A406002010B50B48A3
:103910000B4908604FF4E13048600021084881609D
:10392000C16001610C21416100218161C161FFF72A
:103930006FFA08B1FDF725F910BD0000003801400D
:10394000E406002010B50B480B4908604FF4E13045
:103950004860002108488160C16001610C2141611B
:1039600000218161C161FFF753FA08B1FDF709F940
:1039700010BD0000004400402407002010B50B4893
:103980000B4908604FF4E13048600021084881602D
:10399000C16001610C21416100218161C161FFF7BA
:1039A00037FA08B1FDF7EDF810BD000000480040FF
:1039B0006407002000BFFEE770470000024800686F
:1039C000C0F30220704700000CED00E010B50028A5
:1039D00007DA0A07140E054A00F00F031B1FD45420
:1039E00003E00A07130E024A135410BD18ED00E05D
:1039F00000E400E07047000008B508490968C908FC
:103A00004FF47A72B1FBF2F14143009100BF00BF65
:103A100000994A1E00920029F9D108BD0C0000202F
:103A2000704710B5FEF7DEF910BD00B58FB0282144
:103A300005A8FCF7B0FB14216846FCF7ACFB01209D
:103A400005900004069000200790012009900220B4
:103A50000C90C1030D914FF4E0110E9105A8FEF7F3
:103A6000E9FB08B1FDF78DF80F20009002200190CE
:103A7000002002904FF48060039000200490022107
:103A80006846FEF77FFA08B1FDF77BF80FB000BD7E
:103A90001148006840F001000F490860084640687E
:103AA0000E4908400C494860084600680C49084027
:103AB000094908600846006820F48020086008462C
:103AC000406820F4FE0048604FF41F008860C8037F
:103AD0000449086070470000001002400000FFF831
:103AE000FFFFF6FE08ED00E010B50248FEF7B5FF57
:103AF00010BD0000E404002010B50248FEF7ADFF41
:103B000010BD00002406002010B50248FEF7A5FFF6
:103B100010BD00006406002010B50248FEF79DFFAE
:103B200010BD0000A4060020002202681F4B98422E
:103B30000ED01F4B98420BD0B0F1804F08D01D4BD8
:103B4000984205D01C4B984202D01C4B984203D19E
:103B500022F070024B681A43144B98420ED0144B5B
:103B600098420BD0B0F1804F08D0124B984205D04C
:103B7000114B984202D0114B984203D122F440726B
:103B8000CB681A4322F080024B691A4302608B68AB
:103B9000C3620B688362054B984202D0044B984283
:103BA00001D10B690363012343617047002C01407D
:103BB000003401400004004000080040000C0040B8
:103BC00030B50C460021816821F47F4142EA03258B
:103BD00025432943816030BD0A460021816821F0D8
:103BE000700142F007031943816070472DE9F041ED
:103BF00004460D4600260027B0462068866826F059
:103C000070066868064326F00706286806432068A1
:103C10008660686800F00F01002935D1001108287E
:103C200032D2DFE800F02D2E2F300B212704D5E90A
:103C30000313AA682068FFF7C3FF26E02068D0F8C6
:103C400020802068006A20F0010021680862206856
:103C5000876927F0F007286947EA0017206887611D
:103C60002068C0F8208010E02A69A968206800F068
:103C70000FF80AE02A69A968206800F01EF804E03D
:103C800003E002E001E000E000BF00BFBDE8F0811A
:103C900030B50B46144600210022026A056A25F061
:103CA00001050562816921F0F00141EA041122F069
:103CB0000A021A438161026230BD30B50B461446D8
:103CC00000210022056A25F0100505628169026A5B
:103CD00021F4704141EA043122F0A00242EA0312C9
:103CE0008161026230BD70B505466C6A0020E085D6
:103CF000E0842046FEF7E4FF70BD70B5064600255F
:103D0000746A20684069C0F3C01594F8390021280E
:103D100005D125B10020E084204600F060F820683D
:103D20004069C0F3801594F83A00222805D125B1E6
:103D30000020E085204600F032F8E06B40F01000F3
:103D4000E0632046FEF7BCFF70BD70B505466C6AA7
:103D50002868006800F02000B0B90020E0852068E5
:103D6000C06820F480702168C8602068406920F035
:103D70000100216848612068406920F04000216806
:103D80004861202084F83A002046FFF70DFA70BD04
:103D900070B50446656A2846FFF726FA70BD0168CB
:103DA000C96821F490710268D1600168496921F005
:103DB000010102685161202180F83A10704710B566
:103DC00004462068C06820F040002168C8602020B8
:103DD00084F839002046FFF773FA002010BD01680F
:103DE000C96821F0C0010268D160202180F8391033
:103DF000704770B5044694F83A0022284AD1A0686A
:103E0000B0F5805F13D1A56A206940B92068406889
:103E1000C0F308002880A06A801CA06219E0206816
:103E20004068C0B22880A06A401CA06211E02069EE
:103E300038B920684068C1B2A26A501CA0621170F3
:103E400007E02068406800F07F01A26A501CA06271
:103E50001170E08D401E80B2E085C8B92068C0684E
:103E600020F020002168C8602068C06820F48070BD
:103E70002168C8602068406920F00100216848611D
:103E8000202084F83A002046FFF78EF9002070BD0C
:103E90000020FCE70220FAE72DE9F0410446002566
:103EA0002068006920F44050E168084321680861F7
:103EB0002169A06808436169084305432068C06818
:103EC00041F20C61884328432168C860206840693A
:103ED00020F44070A1690843216848615F49206867
:103EE00088425CD1FEF74CF900EBC00101EB0010F9
:103EF00061688900B0FBF1F6FEF742F900EBC00102
:103F000001EB001061688900B0FBF1F06421B0FBA7
:103F1000F1F000EBC00101EB0010A6EB80003221B4
:103F200001EB00106421B0FBF1F000F0F006FEF7A9
:103F300027F900EBC00101EB001061688900B0FBBC
:103F4000F1F06421B0FBF1F006EB0016FEF718F972
:103F500000EBC00101EB001061688900B0FBF1F7D4
:103F6000FEF70EF900EBC00101EB0010616889005B
:103F7000B0FBF1F06421B0FBF1F000EBC00101EB0C
:103F80000010A7EB8000322101EB00106421B0FB90
:103F9000F1F000F00F003044216888605BE0FEF72C
:103FA000DFF800EBC00101EB001061688900B0FB95
:103FB000F1F6FEF7D5F800EBC00101EB00106168E7
:103FC0008900B0FBF1F06421B0FBF1F000EBC0011F
:103FD00001EB0010A6EB8000322101EB0010642100
:103FE000B0FBF1F000F0F006FEF7BAF800EBC0010C
:103FF00001EB001061688900B0FBF1F06421B0FBB7
:10400000F1F006EB0016FEF7ABF800EBC00101EB98
:10401000001061688900B0FBF1F7FEF7A1F800EB32
:10402000C00101EB001061688900B0FBF1F0642170
:10403000B0FBF1F000EBC00101EB0010A7EB80003A
:10404000322101EB00106421B0FBF1F000F00F0011
:10405000304421688860BDE8F081000000380140EC
:10406000014691F8390021282CD18868B0F5805F8D
:104070000FD10A6A1088C0F308000B6858600869FD
:1040800018B9086A801C086209E0086A401C0862C6
:1040900005E00B6A581C086218780B685860C88CD9
:1040A000401E80B2C88458B90868C06820F08000FB
:1040B0000B68D8600868C06840F040000B68D860A2
:1040C000002070470220FCE72DE9F04104460D4630
:1040D00017469846069E21E0701CF8B12EB1FDF7F8
:1040E0007BFEA0EB0800B04218D92068C06820F41D
:1040F000D0702168C8602068406920F00100216804
:104100004861202084F8390084F83A0000BF00207C
:1041100084F8380000BF0320BDE8F0812068006803
:104120002840A84201D1012000E00020B842D3D0AD
:104130000020F1E710B50248FEF7C4FD10BD0000F5
:10414000E406002010B50248FEF7BCFD10BD0000DB
:104150002407002010B50248FEF7B4FD10BD000092
:104160006407002010B50248FCF765FE10BD000092
:10417000BC04002010B50248FCF75DFE10BD000035
:10418000BC04002000BFFEE70FB4054B10B503A927
:10419000044A029800F05CF910BC5DF814FB0000C2
:1041A0006D5F0008B4040020490050EAC12018BF28
:1041B00004204A0D18BF40F0010040F2FF72B2EB3C
:1041C000515F08BF40F00200012808BF052070477A
:1041D0002DE9F0414F1E00EBC7010446D1E9000173
:1041E00015461E4637F006020DD02A463346FCF728
:1041F0004CF97F1E04EBC703D3E90023FCF79EF8BC
:1042000037F00602F1D1022F25D0042F13D0062F4C
:1042100018BFBDE8F0812A463346FCF736F9D4E9E9
:104220000A23FCF78BF82A463346FCF72EF9D4E92B
:104230000823FCF783F82A463346FCF726F9D4E92D
:104240000623FCF77BF82A463346FCF71EF9D4E92F
:104250000423FCF773F82A463346FCF716F9D4E931
:104260000223FCF76BF82A463346FCF70EF9D4E933
:104270000023BDE8F041FCF761B80122FCF74BBB1D
:10428000FCF75CB8024A00201107FCF744BB0000B1
:1042900001FDFFFF0121FCF766BA00210846FCF78B
:1042A0000FB802E008C8121F08C1002AFAD17047EF
:1042B0007047002001E001C1121F002AFBD17047A6
:1042C0000149086070470000B80400202DE9FF5F35
:1042D00082B00021DDE90430020DDDF840B0034377
:1042E00018D044F61050A2F2FF3242431514119830
:1042F00001281FD0A5EB0B00401C5FEA000A4FF01D
:1043000000064E4FDFF83891B046504615D5CAF139
:10431000000413E0119801244AA3012801D16FEA97
:104320000B010298119AC0E90031C0E9024206B0BF
:10433000BDE8F09FCBF10000DFE704460021404AD2
:10434000491842EB0450CDE9001012E0E00707D015
:1043500032463B4640464946FCF797F88046894638
:1043600032463B4610461946FCF78FF806460F4684
:104370006410002CEAD1DDE90401DDE90023BAF183
:10438000000F06DAFCF781F842464B46FCF77DF851
:1043900005E0FCF751FA42464B46FCF74DFA04465D
:1043A0000E460022284BFCF737FB03D84FF0FF30B6
:1043B000014607E00022254B20463146FBF7BEFFB1
:1043C000FCF711FB102409E0002C0ADB0A22002371
:1043D000FCF740F9039B30321A55641E50EA010283
:1043E000F2D1641C039AC4F111031444119A012AF6
:1043F00003D0012208430DD10AE0084304D0002075
:104400004FF0110B119072E7A3EB0B056D1E0DE041
:104410005B4504DD4FF0000205F1010504E003DA1D
:104420004FF00002A5F10105002AECD00298119985
:10443000C0E90231C0E9004579E7000000001440FE
:104440000000F03F300000000000F0430000E03FBB
:104450002DE9FF4F95B09B468946064600250FE2A1
:10446000252877D100242746F84A0121059400E049
:10447000044316F8013F203B01FA03F01042F7D144
:1044800030782A2811D06FF02F033078A0F1300255
:10449000092A16D8059A44F0020402EB820203EBC3
:1044A00042021044761C0590EFE759F8042B059260
:1044B000002A03DA504244F40054059044F0020408
:1044C000761C30782E2816D116F8010F44F004041B
:1044D0002A280DD06FF02F023078A0F13003092B7D
:1044E00009D807EB870302EB4303C718761CF3E7F1
:1044F00059F8047B761C30786C280FD006DC4C28E9
:1045000017D068280DD06A2814D104E0742810D080
:104510007A280FD10DE044F400140AE044F480142A
:1045200001E044F440147278824202D104F5801410
:10453000761C761C307866280BD013DC582877D090
:1045400009DC002875D04528F6D04628F4D0472845
:104550001AD19DE118E0632835D0642879D0652808
:1045600012D195E1702873D008DC6728F1D0692852
:104570006FD06E280DD06F2806D1B5E073282CD0EF
:10458000752875D0782874D05A46179990476D1CB5
:1045900075E1C4F30250022809D003280DD0D9F8E0
:1045A000001004280DD00D6009F1040967E1D9F865
:1045B0000010EA17C1E90052F6E7D9F800100D80A3
:1045C000F2E70D70F0E719F8041B8DF800100020D9
:1045D0008DF80100EA46012003E059F804AB4FF0E2
:1045E000FF3061074FF0000102D40DE008F1010136
:1045F0008846B9420FDA8045F8DB1AF8081000291E
:10460000F4D108E008F1010188468142FADB1AF88A
:1046100008100029F6D105985B46A0EB0807214653
:104620003846179A00F094FA284400EB080507E092
:104630004DE029E10DE01AF8010B5A461799904711
:10464000B8F10108F7D25B4621463846179A13E1C4
:1046500042E00A220092C4F302524FF0000A022AFA
:1046600008D059F804CB032A4FEAEC710AD00DE0C8
:1046700029E02AE009F1070121F00702F2E802C16E
:10468000914609E00FFA8CFC4FEAEC71042A03D141
:104690004FFA8CFC4FEAEC71002907DA0A46002138
:1046A000DCF1000C61EB02012D2202E0220504D5B1
:1046B0002B228DF80420012203E0E20701D0202202
:1046C000F7E7904659E00A2102E010220DE01021A0
:1046D0004FF0000A00910BE010224FF0000A44F066
:1046E00004040827009203E008224FF0000A009219
:1046F000C4F30252022A05D059F804CB0021032A40
:1047000008D009E009F1070121F00702F2E802C12F
:10471000914605E01FFA8CFC042A01D10CF0FF0C35
:104720004FF00008220728D5702806D0009B83F0A0
:10473000100353EA0A0305D00EE040228DF804204E
:10474000012208E05CEA010206D030228DF8042044
:104750008DF8050002229046009B83F0080353EA7F
:104760000A030AD15CEA010201D1620705D53022B1
:104770008DF804204FF001087F1E582804D034A083
:1047800003900EA802900DE036A0F9E7534660466C
:10479000009AFBF75FFF84460398825C0298401EF4
:1047A000029002705CEA0100F0D1029806A9081A92
:1047B00000F1200A600702D524F4803400E00127CC
:1047C000574502DDA7EB0A0000E0002000EB0A01DC
:1047D000009005984144401A0590E00306D45B46DA
:1047E0002146179A059800F0B3F90544002706E022
:1047F00001A85A46C05D179990476D1C7F1C47451C
:10480000F6DBE0030CD55B462146179A059800F0CD
:104810009FF9054404E030205A46179990476D1CD3
:104820000099481E00900029F5DC08E002980299E2
:104830005A460078491C0291179990476D1CBAF1AD
:104840000001AAF1010AF1DC65E10000092801007C
:1048500030313233343536373839616263646566F6
:1048600000000000303132333435363738394142B8
:10487000434445460000000000F058F90544761C0A
:10488000307800287FF4ECAD19B02846BDE8F08FF1
:10489000620700D4062709F1070222F0070CFCE8A2
:1048A0000223E14603F000485FEA080C02D00FF251
:1048B000702C0DE05FEA045C02D50FF2682C07E073
:1048C0005FEAC47C02D00FF2602C01E0AFF2700C02
:1048D0004FF0FF3823F00043CDF850C065280CD0CE
:1048E00006DC452809D046281DD047283DD13DE0AB
:1048F000662818D067287ED138E00021112F01DB0F
:10490000112000E0781CCDE9000106A90EA8FFF7F0
:10491000DDFCDDE90F010E9A03910021009207F101
:10492000010A04914DE04FF000400097CDE90110DD
:1049300006A90EA8FFF7CAFCDDE90F0203920E9B41
:1049400011990022DDF80CA00093049211B9791C92
:1049500000EB010AB7EB0A0004D4C0F1FF3007F105
:10496000010A0490AAEB0700019044E0012F00DA4D
:1049700001270021112F01DD112000E03846CDE98B
:10498000000106A90EA8FFF7A1FCDDE90F010E9AB0
:104990000391002104910092BA4621070CD4039997
:1049A000514500DA8A46BAF1010F05DD009AAAF1F5
:1049B0000101515C302908D0B84202DA10F1040F2D
:1049C00006DA0121CDE9011015E0AAF10101E9E7BC
:1049D000002805DC049901440491AAEB000102E0DF
:1049E000411C514500DD8A460499401A401C019043
:1049F0004FF000400290200704D40198504501DB9D
:104A0000CDF8048000208DF84F0002980DF14F077B
:104A1000B0F1004F25D02B200E9002984FF00208E5
:104A200000280CDA404202902D200E9007E00A2167
:104A30000298FBF7F9FD3031029007F8011DB8F13B
:104A40000001A8F10108F2DC02980028EFD1791EDC
:104A50000E980870307800F0200040F0450007F80C
:104A6000020D12A8C01B00F107081498007800B1CD
:104A7000012000EB0A01019801EBE0710598414427
:104A8000401A401E0590E00306D45B462146179A63
:104A9000059800F05DF805441498007818B15A465E
:104AA000179990476D1CE00324D55B462146179A61
:104AB000059800F04DF805441CE00498002807DB39
:104AC000DDE90301884203DD0098405C179901E0AD
:104AD000179930205A469047049805F10105401C6B
:104AE00004900198401E019004D12E205A46179937
:104AF00090476D1CBAF10001AAF1010ADDDC05E066
:104B000017F8010B5A46179990476D1CB8F1000130
:104B1000A8F10108F4DC5B462146179A0598ABE63C
:104B20002D0000002B000000200000002DE9F041C6
:104B3000044600251E461746880404D405E039467D
:104B40002020B0476D1C641EF9D52846BDE8F081D1
:104B50002DE9F041044600251E469046C80301D5C4
:104B6000302700E02027880404D505E04146384678
:104B7000B0476D1C641EF9D52846BDE8F0810000E1
:104B80002DE9F04104464FF01A4000EB4400B0F12B
:104B9000C85F204655D84FF0FC41B1EB440F1CD202
:104BA00024F000404FF07E51FBF755FB4FF0FF31F2
:104BB000FBF7D9FD054601F062FC14F0004F1DBF64
:104BC0002C4F2D4E80F00040002708BF3E464FF08E
:104BD0004041FBF743FB044605E0284F284E0146C1
:104BE000FBF73CFB054627492846FBF737FB2649E0
:104BF000FBF7DCFA2946FBF731FB2449FBF7D6FA31
:104C00002946FBF72BFB2249FBF7D0FA2946FBF795
:104C100025FB2049FBF7CAFA804629462046FBF7C8
:104C20001DFB4146FBF71AFB054631462046FBF7C4
:104C300012FB2946FBF70CFB3946BDE8F041FBF7B8
:104C4000B5BA4FF0CC41B1EB440F84BF1248BDE878
:104C5000F0814FF07F41B1EB440F03D2BDE8F0414A
:104C6000FFF718BB0120FFF72BFBBDE8F041FFF772
:104C700014BB00000000494022AA7D3A0000C93F51
:104C800022AAFD3924FE1C3DC78AD83C1E67383D48
:104C90001B93993DAFAA2A3EDB0FC93F2DE9F84F80
:104CA00004460D4621F0004000917349814211DC19
:104CB0007249884201DC06D12CB120462946BDE864
:104CC000F84FFFF7DABA6E48002DCCBF6D496E4938
:104CD000BDE8F88F6D49814211DD6D498142D8BF31
:104CE0004FF0FF366DDD20462946FFF75DFA0428B8
:104CF00008BFFFF7C7FA20462946BDE8F88F654987
:104D0000654F25F00045814233DD6449814219DD5C
:104D1000002632464FF0804320462946FBF70EFB23
:104D200080468A46012220462946FBF7F4FD0022F0
:104D30003B46FBF7A4FB42465346FBF77DFD04468A
:104D40000D463EE001260022BA463B462046294653
:104D5000FBF7F4FA80460F460022534620462946C8
:104D6000FBF78DFB42463B46FBF766FD04460D46CE
:104D700027E04B4981421BDDDFF828A102260022F3
:104D8000534620462946FBF780FB00223B46FBF7B3
:104D9000D5FA80460F460022534620462946FBF7A7
:104DA0006EFB42463B46FBF747FD04460D4608E0D6
:104DB000032622462B4600203B49FBF73DFD0446D7
:104DC0000D4622462B4610461946FBF75EFB8B46E6
:104DD000824602460B46FBF758FB0746024633481D
:104DE00088460B4606217844FFF7F2F952465B46A7
:104DF000FBF74BFB82462E488B463A46434605213D
:104E00007844FFF7E5F93A464346FBF73EFB024696
:104E10000B46002E504659460CDAFBF78FFA224615
:104E20002B46FBF732FB01B022462B46BDE8F04F84
:104E3000FBF728BBFBF782FA22462B46FBF725FB44
:104E40001C4A7A4402EBC603D3E90023FBF717FBA5
:104E500022462B46FBF713FB174A7A4402EBC603A4
:104E6000D3E90023FBF70EFB009A002AB8BF81F0BC
:104E70000041BDE8F88F0000000010440000F07F02
:104E8000182D4454FB21F93FFB21F9BF0000DC3F02
:104E90000000203E0000F33F0000F03F0000E63F2E
:104EA000008003400000F83F0000F0BF46170000FC
:104EB00004170000A21600006A1600002DE9F04D4C
:104EC0009446CCF1000423F000464CEA0404524F0F
:104ED00046EAD4749A46884621F00042BC4206D87D
:104EE000454240EA050442EAD474BC4204D9BDE814
:104EF000F04D6246FFF7C4B9AAF14055A5F17F65B0
:104F000055EA0C040BD0022404EAAA74434DDFF8DE
:104F100010E144EAD87452EA000B04D00CE0BDE87A
:104F2000F04DFFF7BBBE002C14BF012CBDE8F08D87
:104F3000022C30D0032C32D056EA0C0B0AD0BE42E1
:104F400020D1BA4209D126F0804622F08042334671
:104F5000114617E000291ADB25E0DFF8C8B0FB4452
:104F6000002C04BFDBE90001BDE8F08D012C02BF7D
:104F7000DBE9000181F00041BDE8F08D022C0AD090
:104F8000032C0CD0BA4212D1B8F1000F0BDA23482F
:104F90002549BDE8F08D28462449BDE8F08D284616
:104FA0007146BDE8F08D1D482149BDE8F08D921B8A
:104FB00012153C2AC4BF19481D490EDCBAF1000F76
:104FC000BEBF12F13C0F0020014606DB6246FBF734
:104FD00033FC21F00041FFF761FE002C08BFBDE863
:104FE000F08D012C04BF81F00041BDE8F08D114A25
:104FF000114B022C07D0FBF742FA2A46BDE8F04DD0
:105000000A4BFBF73CBAFBF73AFA2A46BDE8F04DEB
:10501000064BFBF737BA00000000F07F182D445410
:10502000FB2109C0FE150000FB21F9BFFB2109404F
:10503000FB21F93F075C143326A6A13C0FB597B0BE
:1050400018990846FBF70AF9109017990846FBF7DC
:1050500005F90F901099FBF7A9F81190FBF7A0FA4A
:10506000CDE9120101F0E5F9CDE91401FBF7ABFA46
:10507000169000211798FBF7C3FA04D10021189865
:10508000FBF7BEFA0CD000211798FBF7B9FA11D143
:1050900000211898FBF7BEFA03D200211D98016089
:1050A000B5E000211898FBF7ABFAF9D2FE491D983C
:1050B0000160ACE000211898FBF7A2FA11D10021A1
:1050C0001798FBF7A7FA03D2F8491D9801609EE0F4
:1050D00000211798FBF794FAE2D2F5491D98016078
:1050E00095E000211798FBF795FA16D20021189841
:1050F000FBF790FA11D2DDE91701FBF7E1F8119007
:10510000FBF74EFACDE91201FFF7C8FDCDE9140116
:10511000FBF759FA1D99086068E000211798FBF722
:1051200079FA1ED200211898FBF76AFA19D2DDE944
:105130001710FBF7C5F80F90FBF732FA21F000418A
:10514000CDE91001FFF7AAFD0022DA4BCDE91201EB
:10515000FBF7F4F8CDE91401FBF735FA1D99086067
:1051600044E000211798FBF74BFA1AD20021189857
:10517000FBF750FA15D2DDE91701FBF7A1F8119002
:10518000FBF70EFA21F00041CDE91201FFF786FD91
:1051900081F00041CDE91401FBF715FA1D99086073
:1051A00024E000211798FBF72BFA1FD20021189852
:1051B000FBF726FA1AD2DDE91710FBF781F80F90FA
:1051C000FBF7EEF921F00041CDE91001FFF766FD94
:1051D00081F000410022B74BCDE91201FBF74FF9F6
:1051E000CDE91401FBF7EFF91D9908601D980068DF
:1051F0001190FBF7D5F9B04AB04BCDE91201FBF79E
:1052000044F9CDE91401FBF7DEF91D990860AC49BA
:105210001998FBF7F5F957D1AA481699FBF71EF82C
:105220000B9016990846FBF719F8A7490890FAF76A
:10523000BDFFA5490990FBF70BF80A900B99FBF706
:105240003FF80C90FFF79CFC0D90FBF7A9F99A4AE8
:105250009A4BCDE90E01FBF718F9CDE91001FBF7E8
:10526000B2F9159016990846FAF7F8FF97490A908F
:10527000FAF7F1FF95490B90FBF722F80C90FFF736
:105280007FFC0D90FBF78CF98B4A8C4BCDE90E011E
:10529000FBF7FBF8CDE91001FBF795F91490159891
:1052A000139081481599FAF7D3FF11901499FAF7E2
:1052B000CFFF80F0004012901A991598086012995B
:1052C0001C9801601BB000BD7D491998FBF7A2F93D
:1052D0007DD2169815907A491998FAF7B9FF14906B
:1052E0001498139013990846FAF7B8FF049015998B
:1052F0000846FAF7B3FF03900499FAF757FF0590B1
:10530000FBF74EF9CDE9060101F093F8CDE908016C
:10531000FBF759F9129012990846FAF79FFF6B496B
:105320000290FAF798FF69490390FAF7C9FF0490D1
:10533000FFF726FC0590FBF733F95F4A5F4BCDE999
:105340000601FBF7A2F8CDE90801FBF73CF9119043
:10535000149810901698FBF723F9CDE904011098E2
:10536000FBF71EF9CDE90201DDE90423FFF7A6FDF5
:10537000514A524BCDE90601FBF787F8CDE9080108
:10538000FBF721F90F904F481299FAF767FF039046
:1053900012990846FAF762FF4B490090FAF706FFA8
:1053A00049490190FAF754FF02900399FAF788FFF0
:1053B0000490FFF7E5FB0590FBF7F2F83E4A3F4B00
:1053C000CDE90601FBF761F8CDE9080100E038E01E
:1053D000FBF7F9F80E90DDE90E10FAF7E7FE0D90F5
:1053E0000D980C9012990846FAF738FF3749029049
:1053F000FAF731FF35490390FAF762FF0490FFF79F
:10540000BFFB0590FBF7CCF82B4A2C4BCDE90601EE
:10541000FBF73BF8CDE90801FBF7D5F80B902248E4
:105420000B99FAF715FF09900C99FAF711FF80F024
:1054300000400A901A990D9808601C990A98086013
:1054400040E71F491998FBF7DBF87DD21C481999F2
:10545000FAF7FEFE15901598149014990846FAF77D
:10546000FDFE089016990846FAF7F8FE079008998D
:10547000FAF79CFE0990FBF793F8CDE90A0100F0DA
:10548000D8FFCDE90C01FBF79EF813900D48139956
:10549000FAF7E4FE079013990846FAF7DFFE0A4987
:1054A0000490FAF783FE13E0000034430000B44296
:1054B0000000B4C200805640F8C1631ADCA54C401D
:1054C000000003430000A0430000C8460000484716
:1054D00036490590FAF7BCFE06900799FAF7F0FEF8
:1054E0000890FFF74DFB0990FBF75AF8304A314B13
:1054F000CDE90A01FAF7C9FFCDE90C01FBF763F822
:1055000012901598FBF74CF8CDE908011698FBF7B7
:1055100047F8CDE90601DDE90823FFF7CFFC244A6F
:10552000244BCDE90A01FAF7B0FFCDE90C01FBF7F6
:105530004AF81190DDE91101FAF738FE1E490D9085
:10554000FAF786FE109000E02EE013990846FAF76D
:1055500085FE1A490690FAF77EFE18490790FAF779
:10556000AFFE0890FFF70CFB0990FBF719F8104A03
:10557000104BCDE90A01FAF788FFCDE90C01FBF7E2
:1055800022F80F900E480F99FAF762FE0D901099CD
:10559000FAF75EFE80F000400E901A9910980860AD
:1055A0001C990E9808608DE600BF8BE60000C84687
:1055B000F8C1631ADCA54C400000B4420000484723
:1055C000000034437047000010B50246002A01DB9A
:1055D000042A01DB002010BD02EB42000B4B03EB61
:1055E0008000007A08B90020F5E702EB4200074B83
:1055F00003EB800040680860002002EB4203034C8C
:1056000004EB830318720120E5E70000B4080020D2
:1056100007480021016041608160C1600161416112
:105620008161C161016241628162C16270470000B3
:10563000B408002030B5002801DB032800DD30BDB0
:1056400000EB4003084C44F8231000EB400304EB4C
:1056500083035A60012300EB4004034D05EB8404EF
:10566000237200BFEBE70000B408002000210020F7
:105670000BE000EB4002074B03EB8202127A1AB1F7
:10568000012282400A43D1B2401C0428F1DB0846C3
:1056900070470000B408002000B58BB000200190D6
:1056A00002900390049005900690079001200890C6
:1056B00009900E200A9001A90748FBF778FA08B173
:1056C000FBF75FFA0448FBF75AFE02210248FBF79A
:1056D00059FA0BB000BD0000BC0400207047000068
:1056E0002DE9F04F89B004468946924606A808A9DC
:1056F00007AB5246CDE9001049462046FFF79EFC15
:105700000698FAF74DFF05460E460898FAF748FF47
:10571000074688460798FAF743FF02460B46CDE94D
:105720000078CDE90256CDE904014FA0FEF72CFD2B
:105730005748D0F800B057A0FEF726FD0698FAF7B4
:105740002FFF05460E465846FAF72AFF07463A4607
:105750000B4655A0CDE90056FEF716FD4EA0FEF70C
:1057600013FD59460698FAF773FD06465849FAF7AD
:10577000A7FD0546FAF7FBFE05906420059900F0A9
:1057800023FA00F01BF942490698086000200590B2
:1057900000BF05A90020FFF717FF0028F9D03DA0A2
:1057A000FEF7F2FC0798FAF7FBFE074688460598D5
:1057B000FAF7F6FE05462A460B463CA0CDE90078EE
:1057C000FEF7E2FC34A0FEF7DFFC05990798FAF734
:1057D0003FFD06463F49FAF773FD0546FAF7C7FE57
:1057E00083465946642000F0ABF900F0E7F800204A
:1057F000059000BF05A90120FFF7E6FE0028F9D0BB
:1058000024A0FEF7C1FC0898FAF7CAFE05460E462A
:105810000598FAF7C5FE07463A460B4623A0CDE9A0
:105820000056FEF7B1FC1CA0FEF7AEFC05990898E7
:10583000FAF70EFD80F0004626493046FAF740FDA3
:105840000546FAF794FE83465946642000F03CF979
:1058500000F0B4F853464A462146002000F05AF8BA
:1058600009B0BDE8F08F000063616C632064656778
:10587000726565203A20696E3D2025662C206F7583
:10588000743D2025662C207961773D202566000037
:10589000B00400200D0A0D0A2D2D2D2D2D2D2D2D9E
:1058A0002D2D0D0A0000000079617720637572725A
:1058B000656E7420646567203D202566202C20736A
:1058C0007020646567203D2025660D0A00000000F9
:1058D000EC51B83A8FC2F539704710B500F034F882
:1058E00000F080F8FFF7F8FFFFF792FEFFF7D4FE15
:1058F00000F03AFBFFF766FE00F004F8FFF7EEFE5B
:1059000010BD000010B530210148FAF744FC10BD6D
:10591000E408002030B5002801DB012800DB30BDA1
:1059200000EB4004074D45F8241000EB400405EB64
:105930008404626000EB400405EB8404A36000BFB4
:10594000EDE70000E408002010B5012207490848EF
:10595000FDF7C8FB012207490748FDF7C3FB0122F9
:1059600006490748FDF7BEFB10BD0000710200208C
:10597000E40600207D030020240700208904002085
:105980006407002010B50446002C14DB032C12DA47
:1059900004EB440202EB8412074B03EB820292F801
:1059A000051104EB440202EB841203EB820202F1C4
:1059B000830000F025FD10BD6C01002000200CE0EC
:1059C00000BF00EB800101EBC001054A02EBC10101
:1059D00091F840100329F4D1401C0328F0DB7047F4
:1059E0001000002010B500245FE004EB840000EB01
:1059F000C4002F4901EBC003002203CB00F05AF88A
:105A000004EB840000EBC400294901EBC000012233
:105A1000C168806800F04EF804EB840000EBC4001D
:105A2000234901EBC00001224169006900F042F8FE
:105A300004EB840000EBC4001D4901EBC00001220F
:105A4000C169806900F036F804EB840000EBC40003
:105A5000174901EBC0000122416A006A00F02AF8F0
:105A600004EB840000EBC400114901EBC0000122EB
:105A7000C16A806A00F01EF804EB840000EBC400E9
:105A80000B4901EBC0000122416B006B00F012F8E2
:105A900004EB840000EBC400054901EBC0000122C7
:105AA000C16B806B00F006F8641C032C9DDB10BDFD
:105AB0001000002037B51446019A91B22246009892
:105AC000FCF784F93EBD000070B505460C461B4846
:105AD00090F84000032800D070BD04B9FCE7174AD5
