:020000040800F2
:10000000D80D002045010008F9410008033B000815
:10001000F54100083F130008054A000800000000F1
:10002000000000000000000000000000A1420008E5
:10003000A11300080000000075420008A342000858
:100040005F0100085F0100085F0100085F01000810
:100050005F0100085F0100085F0100085F01000800
:100060005F0100085F0100085F0100085F010008F0
:100070005F010008451300085F01000855130008E0
:10008000651300085F0100085F010008E5490008EA
:10009000F54900085F0100085F0100085F010008E2
:1000A0005F010008694300085F0100085F01000864
:1000B0005F0100085F0100085F0100085F010008A0
:1000C0005F0100085F0100085F0100085F01000890
:1000D0005F010008B5490008C5490008D549000876
:1000E0005F0100085F0100085F0100085F01000870
:1000F000994300085F0100085F0100085F010008E4
:100100005F0100085F0100085F0100085F0100084F
:100110005F0100085F010008794300088943000877
:100120005F0100085F0100085F0100085F0100082F
:10013000DFF80CD000F0E6FE00480047D17500085B
:10014000D80D00200648804706480047FEE7FEE736
:10015000FEE7FEE7FEE7FEE7FEE7FEE7FEE7FEE777
:100160001143000831010008202A04DB203A21FA5B
:1001700002F00021704721FA02F3D040C2F12002C0
:100180009140084319467047D2B201E000F8012BB4
:10019000491EFBD270470022F6E710B513460A4607
:1001A00004461946FFF7F0FF204610BD421C10F828
:1001B000011B0029FBD1801A704700000FB400B565
:1001C0008DB010A909900B9000914FF0FF300A906C
:1001D00000200C9005480690054807906A4609A83B
:1001E0000F9900F035FD0DB05DF814FB6D0C0008A3
:1001F0008B0C00082DE9FF4F087883B09946FF2843
:1002000005D0491C2D2804D00024002008E000203F
:100210000BE00124F9E700EB800003EB4000491CF0
:100220000B78FF2BF7D104B14042002302931478DE
:1002300019461D462D2C01D02B2C04D1521C2D2CDF
:1002400013D000240294AA461478FF2C0FD00A255C
:10025000A3FB057801FB05814FF0000C03FB0C119B
:10026000521CE3194AEB0101EEE70124EAE781445D
:1002700053EA010002D019F5C87F06DA039800217D
:10028000C0E9001107B0BDE8F08F0025AE4E2F4643
:10029000DFF8B882184600F011FECDE90001B9F18F
:1002A000000002DAC9F1000400E004460023A74A76
:1002B0001AEB030B42EB045A12E0E00707D02A4680
:1002C00033463846414600F0B4FA074688462A4687
:1002D00033461046194600F0ACFA05460E46641047
:1002E000002CEAD1DDE90001B9F1000F5A4653466E
:1002F00006DA00F010FB3A46434600F00CFB05E03E
:1003000000F097FA3A46434600F093FA029A0AB18F
:1003100081F00041039AC2E90001B3E72DE9FF4FE4
:100320001F468DB0D7E901464FF0FF382E204546D5
:100330004FF000090B90B9696D1C0E988847396A17
:10034000824688470028F6D1BAF1FF3F0AD024F44C
:10035000D064002E11DDBAF12B0F08D0BAF12D0FA9
:100360000BD102E0404611B08DE744F48064B969D6
:100370006D1C0E9888478246761E6946600501D539
:100380002D2000E02B208DF8000001F1010B0DF174
:10039000200809E0B9696D1C0E98884782460F98BD
:1003A00044F40074761E0560002E02DDBAF1300FB1
:1003B000F0D00B998A453ED144F0800406E00F99B5
:1003C000681CA9F1010944F400740860B9696D1C46
:1003D000761E0E98884782463028F0D02BE00B9985
:1003E0008A4505D1200603D444F08004761E18E027
:1003F000504604F073FC08B30DF11301761E44F46B
:1004000000748B4508D2AAF130000BF8010B2006CE
:1004100007D5A9F1010003E0200602D409F101008B
:100420008146A00502D50F99681C0860B9696D1C4A
:100430000E9888478246002ED1DC53E0002E51DD15
:10044000BAF1650F02D0BAF1450F4BD1A00549D5DD
:10045000B9696D1C24F44074761E0E988847824654
:10046000002E0CDD2B2804D0BAF12D0F07D144F457
:100470008074B9696D1C0E9888478246761EE00527
:1004800001D52D2100E02B2108F8011BCDF82C808F
:1004900021E00DF12901761E44F4007488450CD248
:1004A000AAF1300010F0FF0088F8000002D10B998B
:1004B000884509D908F1010806E0E00501D524487E
:1004C00001E042F20F708146B9696D1C0E988847B1
:1004D00082460F980560002E04DD504604F0FEFBB6
:1004E0000028D6D1F9690E988847FF208BF80000C4
:1004F00088F800000020069007904B466A4608A93D
:1005000006A8FFF777FEA00502D46FF001002AE7E6
:1005100014F0240F0AD0E00714D1DDE90612386880
:10052000031D3B600068C0E900120BE0DDE9060135
:1005300000F0F0FA0146E00704D13868021D3A6085
:100540000068016028460EE7000014400000F03FFC
:10055000F1D8FFFFF0B480EA0102D40F4200B2EB01
:10056000410F02D20246084611464A0042D0C30D4E
:10057000DDB2C1F3C752AD1A202D35DAC1F3160131
:1005800041F4000204B15242C5F1200602FA06F11C
:100590002A411044B3EBD05F23D0C4B1012DA0EBAE
:1005A000C35009DCF0BC4FF0004202EAC352DBB298
:1005B00000F5000000F083BB400000F1807000EB0C
:1005C000C350A0F1807040EAD170490009E04908A9
:1005D00041EAC071A0EBC35000F50000400800EBF9
:1005E000C350F0BC00F062BB6142012202EB41014A
:1005F000001BF6E7F0BC704781F00041AAE780F0ED
:100600000040A7E780EA010210B502F00043400075
:1006100022D04A001FD0010E01EB1261C0F3560038
:10062000C2F3560240F4000042F40002A0FB022094
:1006300000047F39140400D0401C50EA124001D459
:100640004000491EC2B20C0604EBD010401C40080A
:10065000802A02D003E0002010BD20F00100002914
:1006600000DA0020184310BD30B480EA010202F025
:10067000004530F0004221F0004013D090B1C30D8E
:10068000D40DC2F31601C0F31600E41A41F40001C0
:1006900040F400027D34914201D3641C00E0490023
:1006A000002C02DA30BC002070474FF40000002319
:1006B000914201D3891A034340084FEA4101F7D11F
:1006C00051B1914202D14FF0004105E002D24FF00A
:1006D000010101E06FF0010103EBC450284430BC7C
:1006E00000F0E4BA2DE9FE4F804681EA0300C00F16
:1006F0000C46009021F0004123F00045B8EB0200C9
:10070000A94105D24046214690461C460B4602466A
:1007100023F00040104347D0270DC7F30A00C3F36E
:100720000A510290401A019040286BDAC3F313007B
:1007300040F4801B0098924620B10023D2EB030ABC
:1007400063EB0B0B01985946C0F14002504600F094
:1007500058FA06460D4650465946019A00F060FA8E
:1007600010EB08006141002487EA115284EAE77324
:100770001A4340D0009A62B3019A012A4FEA075205
:1007800015DC001B61EB02014FF0004202EA075248
:10079000CDE90042001C41F5801132462B4600F0A5
:1007A000D7FA03B0BDE8F08F40462146F9E7001BB9
:1007B00061EB0201001C41F5801300185B41201819
:1007C000A2F5001747EB030140EAD570B6196D4159
:1007D00011E06D084FEA360645EAC0754FEA075248
:1007E000001B61EB0201001C41F5801149084FEA32
:1007F00030000019514132462B4603B0BDE8F04F9E
:1008000000F097BA0098012240000023D0EB0202CA
:1008100063EBE073009821464FEAE074B8EB000008
:1008200061EB0401E9E783F000435BE781F00041FD
:1008300058E72DE9FE4F81EA030404F0004421F05B
:10084000004100944FF0000B23F0004350EA0104F4
:100850005ED052EA03045BD0C3F30A54C1F30A55D5
:100860002C44A4F2F3340194A0FB0254C1F313010D
:1008700041F48011C3F3130343F4801301FB0244DA
:1008800000FB034E840A970A44EA815447EA8357DF
:10089000A4FB076802958D0A05FB07854FEA932C98
:1008A00004FB0C542705029D4FEA065847EA163709
:1008B000B5EB08056EEB070C870E920E47EA811721
:1008C00042EA8312A7FB0201B6EB0B0164EB0004C2
:1008D0002B0D43EA0C335E1844EB1C50DA465146AC
:1008E000E7FB0201C5F313044FEA0B3343EA145349
:1008F0004FEA0432019C43EA0603A4F10C0402947B
:10090000009CCDE900B400F023FA03B0BDE8F08FFD
:1009100000200146F9E72DE9F04D81EA030404F0D7
:10092000004B21F0004514464FF0000A23F000412F
:1009300050EA050220D054EA01021DD0C5F30A573F
:100940000246C5F31303C1F31300C1F30A5640F482
:10095000801543F48013A7EB0608101BD64608F257
:10096000FD3873EB050002D308F1010801E092188D
:100970005B41B8F1000F03DA00200146BDE8F08DBD
:1009800000204FF48011064684460EE0171B73EBDF
:10099000050705D3121B63EB050306434CEA010C64
:1009A00049084FEA300092185B4150EA0107EDD147
:1009B00052EA030012D082EA040083EA05010843E8
:1009C00005D0101BAB4106D20122002306E0002215
:1009D0004FF0004302E06FF0010253101AEB0600E3
:1009E0004CEB085110EB0A0041EB0B01BDE8F04D58
:1009F00000F09FB900F0004220F00040C10DC0F3AC
:100A0000160040F400007F2901DA00207047962983
:100A100003DCC1F19601C84001E096398840002A04
:100A2000F4D04042704720F00040C10DC0F31600E2
:100A300040F400007F2901DA00207047962903DC8A
:100A4000C1F19601C840704796398840704770B52B
:100A5000C1F30A5201F000450024C1F3130140F232
:100A6000FF3341F480119A4201DA002070BD40F258
:100A700033439A42A2F2334203DC5242FFF774FB43
:100A800000E090402C43F1D0404270BD00F00042A5
:100A900030F000400AD0C10D01F56071C0F31600BE
:100AA00042EA0151C2084007114370470020014645
:100AB0007047000030B5041E71F1000404DB4FF0F4
:100AC0000044404264EB0101141E73F1000405DB95
:100AD0001C464FF00043524263EB04038B4208BFB5
:100AE000824230BD30B5041E71F1000404DB4FF0CA
:100AF0000044404264EB0101141E73F1000405DB65
:100B00001C464FF00043524263EB0403994208BF76
:100B1000904230BD01F0004330B421F0004150EA72
:100B2000010206D00A0DA2F56072C1F31301002A7A
:100B300002DC30BC00207047440F44EAC104C1000D
:100B4000E01830BC00EBC25000F0B0B8002801DB68
:100B5000C0F10040002901DBC1F100418142704732
:100B6000002801DBC0F10040002901DBC1F1004198
:100B70008842704730B50B460146002020220124F0
:100B800009E021FA02F59D4205D303FA02F5491B5B
:100B900004FA02F52844151EA2F10102F1DC30BD71
:100BA0002DE9F05F0546002092469B4688460646A2
:100BB000814640241BE02846414647462246FFF72F
:100BC000D3FA53465A46C01A914110D311461846DB
:100BD000224600F016F82D1A67EB01084F46224610
:100BE0000120002100F00DF817EB00094E41201EF6
:100BF000A4F10104DFDC484631462A464346BDE8FD
:100C0000F09F202A04DB203A00FA02F1002070470E
:100C10009140C2F1200320FA03F31943904070473A
:100C2000202A06DBCB17203A41FA02F043EAE073B0
:100C300006E041FA02F3D040C2F12002914008439D
:100C400019467047026811441378016018467047CE
:100C5000D1600449516104491162002111611146BA
:100C600000F068B9450C0008290F0008426842B13D
:100C7000016811F8013B23B1521EC0E90012184669
:100C800070470121C160881E704742685AB1C3682D
:100C9000016843B983688B4205D0491E521CC0E9E4
:100CA0000012002070474FF0FF3070470029A8BFA6
:100CB0007047401C490008BF20F00100704710B485
:100CC000B0FA80FC00FA0CF050EA010404BF10BC3A
:100CD000704749B1CCF1200421FA04F411FA0CF167
:100CE00018BF012121430843A3EB0C01CB1D4FEAA0
:100CF00000614FEA102042BF002010BC704700EB9B
:100D0000C35010440029A4BF10BC7047401C4900C8
:100D100008BF20F0010010BC7047420005D0C0F3AE
:100D2000C7525242914201DC0020704700EBC15093
:100D3000704710B5141E73F1000408DA401C41F12D
:100D4000000192185B411A4301D120F0010010BD4F
:100D50002DE9F04D92469B4611B1B1FA81F202E0C5
:100D6000B0FA80F220329046FFF74BFF04460F4660
:100D700040EA0A0041EA0B0153465A46084313D0A1
:100D8000114653EA010019D0C8F140025046FFF75E
:100D9000EBF905460E46504659464246FFF731FFED
:100DA000084305D0012004E020463946BDE8F08D17
:100DB0000020054346EAE0762C4337430A98630552
:100DC000E40AA0EB08000022FD0A44EA47540A3076
:100DD00002D500200146E9E7010510196941DDE966
:100DE000084500196941BDE8F04DA2E770B521F052
:100DF000004303430CD0C1F30A550024D5EB04058E
:100E000064EB0403D617AD1AB34102DB00200146A0
:100E100070BD201841EB025170BD2DE9F04D00234B
:100E20001A461B1A8A4103DB00200146BDE8F08DFB
:100E3000C1F30A52C1F3130141F480154FF0000BC6
:100E4000D10702D100186D41521E0027044640F21E
:100E5000FF11384601EB620A3E46804602460020FA
:100E60004FF48011FFF780F9C2197141BB1846EBAE
:100E70000100B4EB030C75EB000C04D3E41A65EB32
:100E8000000517460E46241908F101006D41804601
:100E90003428E3DDF91946EB0600091BA84103D20B
:100EA0004FF0FF32134601E0002213461BEB070010
:100EB00046EB0A51BDE8F04DFFF73BBF0EB540F2DF
:100EC000334202920022CDE900221346FFF740FF91
:100ED00003B000BDC1F30A52C1F3130140F2FF3366
:100EE00041F480119A4202DA00200146704740F234
:100EF00033439A42A2F2334202DC5242FFF734B942
:100F0000FFF77FBE064C074D06E0E06840F00103A6
:100F100094E8070098471034AC42F6D3FFF70CF979
:100F2000487A0008687A0008C0B24FF4F05100F027
:100F3000C7B900002DE9F34F8BB04FF0000801F165
:100F40000C000C464FF0010B46460DF1080A0190CB
:100F50006269012101989047051E2DD0252D2CD0C6
:100F6000216A8847C0B16269012101989047216ACE
:100F700088470028F7D1411E62690198904700E038
:100F8000761CA1690B988847216A88470028F7D109
:100F9000E1690B988847DBE7A1690B98884707460A
:100FA000A84201D1761CD3E7E1690B9888477F1CE2
:100FB00002D1B8F1000F6FD046E1002762693D46CB
:100FC0003946019890472A2804D162690121019885
:100FD00090470125DFF884926269012101989047CA
:100FE000A0F130010A290AD24F45E5DC07EB870161
:100FF00000EB4107303FDFD445F01005ECE7E90690
:1010000001D46FF000476C280AD04C2814D068280F
:1010100015D06A280DD074281CD07A281AD01DE06B
:1010200062690121019890476C2802D045F00405BF
:1010300014E045F002050DE045F020050AE0626984
:10104000012101989047682802D045F0080505E085
:1010500045F400656269012101989047C4E9015790
:1010600065283DD019DC58287AD00CDC452837D0CB
:1010700004DC252826D0412831D131E046282FD064
:1010800047282CD12CE05B2877D0612828D0632812
:101090007CD0642823D15AE0D0E06F2848D008DC07
:1010A00066281DD067281BD0692821D06E2816D14C
:1010B00027E0702845D0732868D0752847D0782855
:1010C0000DD14DE0A1690B988847054625283FF4CE
:1010D00069AFE1690B9888476D1C3FF46AAFB3E0D4
:1010E00023466A466FF001000B99FFF717F99EE05F
:1010F00045F040006060A80723464FF0000236D458
:101100003EE0E8077FF447AF2068011D21600068DA
:10111000290501D506701BE7290701D5068017E7C9
:10112000A90703D5F117C0E9006111E706600FE7D1
:1011300045F040006060A80723464FF0080216D42F
:101140001EE040F60E0125EA0100606016E045F061
:1011500040006060A80723464FF00A0207D40FE062
:1011600045F040006060A80708D5234610226FF0C4
:1011700001000B99AFF3008059E007E023461022ED
:101180006FF001000B99AFF3008050E04FF00009C1
:101190004F464B46632802D05B2806D040E0E80665
:1011A00001D40120A06001273AE062690121019881
:1011B00090475E2805D14FF00109626949460198C0
:1011C0009047216939B900210A46534643F8212046
:1011D000491C0829FADBB0B3216969B9C11700EBD2
:1011E000D16253110AEB830122F01F02821A0120FF
:1011F0000B68904003430B6062690121019890479E
:101200005D28E8D1B9F1000F09D00020514651F80E
:101210002020D24341F82020401C0828F7DB02ABF5
:10122000224600976FF001000B99AFF30080002871
:101230000CDA401C08D1BBF1000F05D04FF0FF3095
:101240000DB0BDE8F08FFFE74046F9E7E90701D1AF
:1012500008F1010806444FF0000B79E6CCCCCC0C29
:10126000F0B4002802DCF0BC00207047C0F3C75186
:10127000C0F3160040F40000CA0701D14000491E27
:101280003F2202EB6105002211464FF4000626FAC8
:1012900001F31344D418844201D8001B1A464000BD
:1012A000491C1729F3DD5100814202D24FF0FF3172
:1012B00000E0002102EBC550F0BCFFF7F7BC0000D6
:1012C0007F2801D9002208E0064A02EB5002C0073D
:1012D000127800D1120902F00F020120904008405C
:1012E00070470000087A000870B58C1810F8015B90
:1012F00015F0070301D110F8013B2A1106D110F8AF
:10130000012B03E010F8016B01F8016B5B1EF9D1B2
:101310002B0705D40023521E0DD401F8013BFAE738
:1013200010F8013BCB1A921C03E013F8015B01F8A3
:10133000015B521EF9D5A142D8D3002070BD00BF79
:10134000FEE7000010B5024800F034FD10BD0000BB
:101350003C08002010B5024800F02CFD10BD000034
:10136000B407002010B5024800F024FD10BD0000B5
:10137000F807002030B590F840500124AC40C56B10
:101380006C60046863604468102C04D10468A26037
:101390000468E16003E00468A1600468E26030BDB5
:1013A0007047704710B5024692F82030012B01D0EB
:1013B000022B06D110684069084314686061002060
:1013C00010BD506A40F4802050620120F8E7F0B56B
:1013D00004460A46216894F82050012D01D0022DC0
:1013E00074D1D1F8000240F00100C1F80002107D74
:1013F00000F01F06012000FA06F3D1F81C02984302
:10140000C1F81C02D069C8B9D1F80C029843C1F8E0
:101410000C02908880B2968940EA064601F5107069
:10142000576940F83760108880B2168940EA06464E
:1014300001F51070576900EBC7004660D0690128BC
:1014400019D1D1F80C021843C1F80C02908880B26F
:10145000168840EA064601F51070576940F8376073
:10146000908980B2168940EA064601F510705769E6
:1014700000EBC7004660906928B9D1F80402984390
:10148000C1F8040204E0D1F804021843C1F80402D0
:10149000106928B9D1F814029843C1F8140204E085
:1014A000D1F814021843C1F81402106A012804D1BB
:1014B000D1F81C021843C1F81C02D1F8000220F038
:1014C0000100C1F800020020F0BDFFE7606A40F4AF
:1014D000802060620120F7E7704770B5044694F8F9
:1014E0002050012D01D0022D7CD151B92068C06857
:1014F00000F0030080B9606A40F4001060620120CF
:1015000070BD2068006900F0030028B9606A40F4EB
:10151000001060620120F3E7206800F5D87000EB4E
:101520000110006800F004009060906840B92068E5
:1015300000F5D87000EB01100068400D106007E066
:10154000206800F5D87000EB01100068C0085060FA
:10155000206800F5D87000EB0110006800F0020070
:101560004008D060206800F5D87000EB011040689A
:1015700000F00F001061206800F5D87000EB01103A
:10158000406800F47F40000A9061206800F5D87040
:1015900000EB01104068000C5061206800F5D87025
:1015A00000EB011080681870206800F5D87000EB1F
:1015B0000110806800F47F40000A5870206800F530
:1015C000D87000EB0110806800F47F00000C987068
:1015D000206800F5D87000EB01108068000ED8700C
:1015E000206800E031E000F5D87000EB0110C06821
:1015F0001871206800F5D87000EB0110C06800F485
:101600007F40000A5871206800F5D87000EB011087
:10161000C06800F47F00000C9871206800F5D87055
:1016200000EB0110C068000ED87131B92068C068A5
:1016300040F020002668F06005E02068006940F076
:1016400020002668306100205AE7606A40F480205C
:101650006062012054E72DE9F05F04460025206810
:1016600046692068D0F80490206887682068D0F820
:101670000CA02068D0F810B02068D0F8188006F0D0
:101680000100002855D007F00100C0B101202168F9
:10169000886007F0020018B1204600F0B0FA0EE0B2
:1016A00007F0040010B145F4006508E007F00800F9
:1016B00010B145F4805502E0204600F09FFA07F48F
:1016C0008070C8B14FF480702168886007F40070A2
:1016D00018B1204600F095FA0EE007F4806010B1D2
:1016E00045F4005508E007F4006010B145F480456A
:1016F00002E0204600F084FA07F48030C8B14FF4CD
:1017000080302168886007F4003018B1204600F06E
:101710007AFA0EE007F4802010B145F4004508E0A5
:1017200007F4002010B145F4803502E0204600F0B7
:1017300069FA06F0080038B10AF0100020B145F44B
:10174000007510202168C86006F0040040B10AF05E
:10175000080028B108202168C860204600F0B0F9D0
:1017600006F0020038B12068C06800F0030010B134
:10177000204600F0A7F906F0400038B10BF0100049
:1017800020B145F4806510202168086106F0200032
:1017900040B10BF0080028B10820216808612046FC
:1017A00000F0FAF906F0100038B12068006900F086
:1017B000030010B1204600F0F0F906F4003040B10B
:1017C00009F0100028B1102021684860204600F080
:1017D000E5F906F4803040B109F0080028B108208E
:1017E00021684860204600F00FFA06F4004088B3F4
:1017F00009F0040078B306F4807020B108F001000D
:1018000008B145F0010506F4007020B108F00200AF
:1018100008B145F0020506F4806020B108F004002C
:1018200008B145F0040506F40060A0B108F07000AE
:1018300088B108F07000402817D006DC10280BD0C3
:1018400020280CD0302819D10CE0502810D0602866
:1018500014D110E01DE019E045F008050FE045F057
:1018600010050CE045F0200509E045F0400506E0D4
:1018700045F0800503E045F4807500E000BF00BF3F
:101880002068806920F07000216888610420216848
:1018900048602DB1606A284360622046FFF71CFE55
:1018A000BDE8F09F70B504460CB9012070BD94F8F6
:1018B000200010B9204600F0AFF82068006820F042
:1018C00002002168086000F097FE05460DE000F078
:1018D00093FE401B0A2808D9606A40F40030606219
:1018E000052084F820000120E0E72068406800F02F
:1018F00002000028EBD12068006840F00100216858
:10190000086000F079FE05460DE000F075FE401B12
:101910000A2808D9606A40F400306062052084F823
:1019200020000120C2E72068406800F00100002884
:10193000EBD0207E012806D12068006840F08000AE
:101940002168086005E02068006820F080002168B8
:101950000860607E012806D12068006840F04000E1
:101960002168086005E02068006820F040002168D8
:101970000860A07E012806D12068006840F02000A1
:101980002168086005E02068006820F020002168D8
:101990000860E07E012806D12068006820F0100071
:1019A0002168086005E02068006840F010002168A8
:1019B0000860207F012806D12068006840F00800F8
:1019C0002168086005E02068006820F008002168B0
:1019D0000860607F012806D12068006840F004009C
:1019E0002168086005E02068006820F00400216894
:1019F0000860D4E90201084321690843616908438A
:101A00006168491E08432168C861002060620120A6
:101A100084F82000002049E710B586B00446002075
:101A200002900390049005902249206888423ED19C
:101A300000BF2148C06940F000701F49C8610846D6
:101A4000C06900F00070019000BF00BF00BF0846F1
:101A5000806940F0040088610846806900F0040055
:101A6000019000BF00BFC8140290002003900490B2
:101A700002A9124800F012FC4FF48050029002209C
:101A800003900320059002A90C4800F007FC0022F7
:101A90001146132000F033FE132000F023FE002235
:101AA0001146142000F02BFE142000F01BFE06B09F
:101AB00010BD00000064004000100240000801401A
:101AC000704700007CB504463149206888425CD1EB
:101AD000304BA3F11C0200212046FFF7FEFC2D48ED
:101AE0001C38406841F21031884211D029481C3816
:101AF0004068491C88420BD026481C384068491C65
:101B0000884205D023481C384068491C88423CD193
:101B100020481C3840680A21B0FBF1F201FB120595
:101B2000042D00DB7CBD1B481C38007F8DF80400B1
:101B300018481C38407F8DF8050016481C38807FF7
:101B40008DF8060013481C38C07F8DF80700114837
:101B50001C3890F820008DF800000E481C3890F8D2
:101B600021008DF801000B481C3890F822008DF8F8
:101B7000020008481C3890F823008DF8030028461E
:101B8000DDE9002104F010FB00BF00BFCAE7000040
:101B9000006400404C09002070477047704770B5E2
:101BA000044694F82000012822D1022084F8200065
:101BB0002068006820F001002168086000F01CFD2A
:101BC00005460DE000F018FD401B0A2808D9606AA0
:101BD00040F400306062052084F82000012070BDD0
:101BE0002068406800F001000028EBD16062F6E751
:101BF000606A40F4002060620120F0E7704770479F
:101C000070477047704770477047000070B50446D2
:101C1000002594F82100022803D00420A0630125A8
:101C2000C1E02068006820F00E002168086020688C
:101C3000006820F00100216808605C492068884243
:101C400052D95A4978392068884201D1012047E0A9
:101C5000564964392068884201D1102040E0534938
:101C600050392068884201D1801539E04F493C390C
:101C70002068884201D1801432E04C49283920681C
:101C8000884202D14FF480302AE048491439206854
:101C9000884202D14FF4801022E0444920688842F3
:101CA00001D140041CE042492068884201D1012052
:101CB00016E03F4914312068884201D110200FE01E
:101CC0003B4928312068884201D1801508E0384915
:101CD0003C312068884201D1801401E04FF480300B
:101CE0003349091F086051E030497839206888423B
:101CF00001D1012047E02D4964392068884201D193
:101D0000102040E0294950392068884201D18015CF
:101D100039E026493C392068884201D1801432E0FC
:101D2000224928392068884202D14FF480302AE0C5
:101D30001E4914392068884202D14FF4801022E0F5
:101D40001A492068884201D140041CE018492068E3
:101D5000884201D1012016E01549143120688842DB
:101D600001D110200FE0124928312068884201D1AA
:101D7000801508E00E493C312068884201D180146A
:101D800001E04FF48030094980394860012084F82F
:101D9000210000BF002084F8200000BF606B10B15C
:101DA0002046616B8847284670BD000080000240D5
:101DB0000804024070B50446E06B056820680668B8
:101DC00094F84010042088402840002875D006F080
:101DD00004000028FAD02068006800F0200028B92C
:101DE0002068006820F0040021680860D549206858
:101DF000884254D9D34978392068884201D10420D7
:101E000049E0D04964392068884201D1402042E04D
:101E1000CC4950392068884201D100153BE0C949BE
:101E20003C392068884202D14FF4804033E0C549F4
:101E300028392068884202D14FF480202BE0C14924
:101E400014392068884202D14FF4800023E0BD4954
:101E50002068884201D1C0041DE0BB492068884247
:101E600001D1042017E0B84914312068884201D11B
:101E7000402010E0B44928312068884201D1001583
:101E800009E0B1493C312068884202D14FF48040DA
:101E900001E04FF48020AC49091F086054E0A949D3
:101EA00078392068884201D104204AE0A549643984
:101EB0002068884202D1402043E04CE0A1495039DB
:101EC0002068884201D100153BE09E493C392068DA
:101ED000884202D14FF4804033E09A492839206883
:101EE000884202D14FF480202BE0964914392068B3
:101EF000884202D14FF4800023E092492068884252
:101F000001D1C0041DE090492068884201D104201D
:101F100017E08D4914312068884201D1402010E03B
:101F2000894928312068884201D1001509E0864995
:101F30003C312068884202D14FF4804001E04FF4E8
:101F40008020804980394860E06A002802D020461D
:101F5000E16A8847F4E094F8401002208840284065
:101F6000002871D006F002000028FAD0206800682E
:101F700000F0200040B92068006820F00A002168C5
:101F80000860012084F821006E492068884254D9F5
:101F90006C4978392068884201D1022049E06949BA
:101FA00064392068884201D1202042E065495039D7
:101FB0002068884201D140153BE062493C392068E5
:101FC000884202D14FF4005033E05E49283920683E
:101FD000884202D14FF400302BE05A49143920686E
:101FE000884202D14FF4001023E05649206888420D
:101FF00001D180041DE054492068884201D10220AB
:1020000017E0514914312068884201D1202010E0A6
:102010004D4928312068884201D1401509E04A49DC
:102020003C312068884202D14FF4005001E04FF467
:1020300000304549091F086054E04249783920685A
:10204000884202D102204AE057E03E4964392068C4
:10205000884201D1202042E03A4950392068884224
:1020600001D140153BE037493C392068884202D114
:102070004FF4005033E0334928392068884202D1B8
:102080004FF400302BE02F4914392068884202D1E8
:102090004FF4001023E02B492068884201D18004CE
:1020A0001DE029492068884201D1022017E0264915
:1020B00014312068884201D1202010E022492831C3
:1020C0002068884201D1401509E01F493C31206851
:1020D000884202D14FF4005001E04FF4003019491A
:1020E0008039486000BF002084F8200000BFA06A4B
:1020F00030B32046A16A884722E094F840100820B7
:1021000088402840E0B106F00800C8B120680068A7
:1021100020F00E002168086094F8401001208840EB
:10212000E16B48600120A06384F8210000BF00201B
:1021300084F8200000BF206B10B12046216B884737
:1021400070BD0000800002400804024001460022E9
:1021500009B9012070471E4B086898420BD21D4BED
:102160000868C01A1423B0FBF3F080000864194813
:102170000838C8630AE0164B0868C01A1423B0FB7D
:10218000F3F08000086412480838C863022081F820
:1021900021000868026843F6F0708243D1E9010328
:1021A0001843CB6818430B6918434B6918438B6974
:1021B0001843CB6918430243086802600020886313
:1021C000012081F82100002081F8200000BFC1E734
:1021D00008040240080002402DE9F04104460D4683
:1021E00016461F464FF0000800BF94F82000012853
:1021F00002D10220BDE8F081012084F8200000BF58
:1022000094F8210001282CD1022084F8210000201C
:10221000A0632068006820F00100216808603B4648
:10222000324629462046FFF7A5F8E06A30B120681B
:10223000006840F00E00216808600BE0206800682C
:1022400020F00400216808602068006840F00A005F
:10225000216808602068006840F00100216808607B
:1022600006E000BF002084F8200000BF4FF0020805
:102270004046BFE770B5044600F0BEF90646254665
:10228000681C10B104480078054400BF00F0B4F9A0
:10229000801BA842FAD370BD080000202DE9F84742
:1022A00002460024002000258446002700237BE10D
:1022B0004FF0010808FA03F4D1F8008008EA04009E
:1022C000A0427DD1DFF8ECA2D1F80480A8EB0A0986
:1022D000D0453AD014DCB8F1030F50D009DCB8F186
:1022E000000F31D0B8F1010F1CD0B8F1020F49D165
:1022F00020E0B8F1110F18D0B8F1120F42D11EE052
:10230000B9F5881F25D006DCB9F5803F20D0B9F596
:10231000801F37D11AE0B9F5001F18D0B9F5041F96
:1023200030D117E0D1F80CC02DE0D1F80C8008F1C5
:10233000040C28E0D1F80C8008F1080C23E0D1F857
:102340000C8008F10C0C1EE000BF00BF00BF00BFF6
:1023500000BF00BFD1F80880B8F1000F02D14FF0E4
:10236000040C0BE0D1F80880B8F1010F03D14FF055
:10237000080C146102E04FF0080C546103E04FF0C8
:10238000000C00E000BF00BFFF2801D8904601E02C
:1023900002F104084646FF2802D84FEA830803E00A
:1023A000A3F108084FEA88084746D6F800804FF0A6
:1023B0000F0909FA07F928EA09080CFA07F900E0F9
:1023C0007AE048EA0908C6F80080D1F8048008F0ED
:1023D0008058B8F1805F6FD100BFDFF8DC81D8F89A
:1023E000188048F00108DFF8D091C9F81880C84675
:1023F000D8F8188008F00108CDF8008000BF00BFB1
:102400004FEAB9384FEA930958F829504FEA8378D0
:102410004FEA18794FF00F0808FA09F825EA08057D
:10242000DFF89881424502D14FF0000824E0DFF840
:102430009081424502D14FF001081DE0DFF8848110
:10244000424502D14FF0020816E0DFF87C81424598
:1024500002D14FF003080FE0DFF87081424502D14E
:102460004FF0040808E0DFF86881424502D14FF0E0
:10247000050801E04FF006084FEA83794FEA197921
:1024800008FA09F848EA0505DFF848814FEA930998
:1024900048F82950D1F8048008F48038B8F5803F16
:1024A0000BD1DFF83481D8F8008048EA0008DFF863
:1024B0002891C9F800800AE075E0DFF81C81D8F89F
:1024C000008028EA0008DFF81091C9F80080D1F8F0
:1024D000048008F40038B8F5003F0ED1DFF8F8802A
:1024E00008F10408D8F8008048EA0008DFF8E8900E
:1024F00009F10409C9F800800DE0DFF8DC8008F17B
:102500000408D8F8008028EA0008DFF8CC9009F128
:102510000409C9F80080D1F8048008F48018B8F5DF
:10252000801F0ED1DFF8B08008F10808D8F80080CD
:1025300048EA0008DFF8A09009F10809C9F800800E
:102540000DE0DFF8948008F10808D8F8008028EA48
:102550000008DFF8849009F10809C9F80080D1F873
:10256000048008F40018B8F5001F0ED1DFF8688069
:1025700008F10C08D8F8008048EA0008DFF8589005
:1025800009F10C09C9F800800DE0DFF84C8008F172
:102590000C08D8F8008028EA0008DFF83C9009F120
:1025A0000C09C9F800805B1C102BFFF481AEBDE85C
:1025B000F8870000000011100010024000080140E0
:1025C000000C0140001001400014014000180140BF
:1025D000001C0140080001400004014002469368CD
:1025E0000B400BB1012000E0002070470AB10161EF
:1025F00001E00B0403617047014800687047000068
:102600000000002003480068034909780844014994
:1026100008607047000000200800002010B508483E
:10262000006840F0100006490860032000F0A6F89A
:10263000002000F007F800F02BF8002010BD00008B
:102640000020024070B504460E4800784FF47A71BD
:10265000B1FBF0F00C490968B1FBF0F5284600F039
:1026600019FC08B1012070BD102C07D200222146B0
:10267000501E00F044F80548046001E00120F2E734
:102680000020F0E7080000200C00002004000020DB
:1026900008B500BF1148806940F001000F4988610A
:1026A0000846806900F00100009000BF00BF00BF35
:1026B0000846C06940F08050C8610846C06900F013
:1026C0008050009000BF00BF00BF0549486820F05F
:1026D000E06040F00070486000BF08BD001002409C
:1026E0000000014000BF00F01F020121914042099B
:1026F000920002F1E022C2F8001100BF70472DE9FC
:10270000F05F80460D461646002701F077FD07462C
:1027100039462A46334601F00700C0F1070ABAF1EC
:10272000040F02D94FF0040A01E0C0F1070AD146B4
:1027300000F1040ABAF1070F02D24FF0000A01E0DB
:10274000A0F1030AD4464FF0010A0AFA09FAAAF1E5
:10275000010A0AEA020A0AFA0CFA4FF0010B0BFA14
:102760000CFBABF1010B0BEA030B4AEA0B0421460D
:10277000404601F04BFDBDE8F09F000000BF00F0B7
:102780000702064B19684FF6FF031940044B0B4331
:1027900043EA0221014B196000BF70470CED00E0D5
:1027A0000000FA0570B504460D4600266D48006825
:1027B00000F00700A8420ED26A48006820F0070027
:1027C0002843684908600846006800F00700A842EE
:1027D00001D0012070BD207800F0020002281DD138
:1027E000207800F00400042805D15F48406840F4D8
:1027F000E0605D494860207800F00800082805D1B5
:102800005948406840F4605057494860564840680D
:1028100020F0F000A168084353494860207800F098
:10282000010000285DD06068012806D14E4800688C
:1028300000F4003090B90120CCE76068022806D18E
:102840004948006800F0007040B90120C2E74648DE
:10285000006800F0020008B90120BBE74248406868
:1028600020F00300616808433F494860FFF7C4FE59
:1028700006466068012810D108E0FFF7BDFE801B06
:1028800041F28831884201D90320A3E736484068E5
:1028900000F00C000428F0D123E06068022810D179
:1028A00008E0FFF7A9FE801B41F28831884201D978
:1028B00003208FE72C48406800F00C000828F0D176
:1028C0000FE008E0FFF798FE801B41F28831884254
:1028D00001D903207EE72448406800F00C0000285E
:1028E000F0D12048006800F00700A8420ED91D482A
:1028F000006820F0070028431A490860084600686D
:1029000000F00700A84201D0012063E7207800F022
:102910000400042807D11448406820F4E060E1680E
:10292000084311494860207800F00800082808D1C1
:102930000D48406820F46050216940EAC1000A490E
:10294000486000F03DF808494968C1F30311074A9F
:10295000515CC840064908600020FFF773FE002064
:1029600038E700000020024000100240FC78000818
:102970000C00002001480068704700000C00002097
:1029800000B5FFF7F7FF04494968C1F30221034A84
:10299000515CC84000BD0000001002400C790008E6
:1029A00000B5FFF7E7FF04494968C1F3C221034AB4
:1029B000515CC84000BD0000001002400C790008C6
:1029C000F0B585B00FF26C0C9CE8E01001A8A0E80F
:1029D000E0101CA52D680095002100220023002492
:1029E0000020194D696801F00C05F5B1042D02D0E5
:1029F000082D19D101E0154819E001ADC1F3834656
:102A0000AC5D01F4803555B10F4D6D68C5F340459F
:102A10001DF805200D4D6543B5FBF2F302E00C4DAA
:102A200004FB05F3184602E000BF084800BF00BFE2
:102A300005B0F0BD02030405060708090A0B0C0DDA
:102A40000E0F1010010200000010024000127A0068
:102A500000093D00F8B504460025207800F001008B
:102A6000002878D0F848406800F00C0004280CD00A
:102A7000F548406800F00C00082811D1F248406881
:102A800000F48030B0F5803F0AD1EF48006800F4D0
:102A9000003000285FD0606800285CD10120F8BDBC
:102AA00000BF6068B0F5803F06D1E748006840F499
:102AB0008030E549086028E0606858B9E24800685D
:102AC00020F48030E04908600846006820F4802047
:102AD00008601AE06068B0F5A02F0BD1DA480068F2
:102AE00040F48020D84908600846006840F48030EF
:102AF00008600AE0D448006820F48030D2490860B9
:102B00000846006820F48020086000BF606888B133
:102B1000FFF772FD054606E0FFF76EFD401B6428D7
:102B200001D90320BBE7C848006800F40030002842
:102B3000F2D010E0FFF760FD054606E0FFF75CFD10
:102B4000401B642801D90320A9E7BF48006800F4AE
:102B500000300028F2D1207800F00200022857D17E
:102B6000B948406800F00C0050B1B748406800F028
:102B70000C00082818D1B448406800F4803098B997
:102B8000B148006800F0020020B12069012801D09E
:102B9000012084E7AC48006820F0F800616940EA51
:102BA000C100A949086033E02069E8B10120A749C4
:102BB0000860FFF721FD054606E0FFF71DFD401BFD
:102BC000022801D903206AE79F48006800F002004C
:102BD0000028F2D09C48006820F0F800616940EAC3
:102BE000C1009949086013E0002098490860FFF788
:102BF00003FD054606E0FFF7FFFC401B022801D954
:102C000003204CE79048006800F002000028F2D151
:102C1000207800F0080008282DD1A069B8B1012063
:102C20008B490860FFF7E8FC054606E0FFF7E4FC87
:102C3000401B022801D9032031E78348406A00F095
:102C400002000028F2D0012001F016FB13E0002062
:102C50007F490860FFF7D0FC054606E0FFF7CCFC93
:102C6000401B022801D9032019E77748406A00F089
:102C700002000028F2D1207800F00400042873D16B
:102C800000267148C06900F0805070B900BF6E48DE
:102C9000C06940F080506C49C8610846C06900F0C6
:102CA0008050009000BF00BF01266A48006800F411
:102CB0008070B0B96748006840F48070654908606A
:102CC000FFF79AFC054606E0FFF796FC401B6428D8
:102CD00001D90320E3E65F48006800F48070002813
:102CE000F2D000BFE068012806D15748006A40F0E2
:102CF00001005549086227E0E06858B95248006A67
:102D000020F00100504908620846006A20F00400E3
:102D1000086219E0E06805280BD14B48006A40F0D2
:102D20000400494908620846006A40F00100086250
:102D30000AE04548006A20F001004349086208465D
:102D4000006A20F00400086200BFE068A0B1FFF74D
:102D500053FC054609E0FFF74FFC401B41F2883168
:102D6000884202D903209AE622E03748006A00F040
:102D700002000028EFD012E0FFF73EFC054608E015
:102D8000FFF73AFC401B41F28831884201D9032009
:102D900085E62D48006A00F002000028F0D1012EDF
:102DA00005D12948C06920F080502749C86100BF7B
:102DB000E069C8B32448406800F00C00082860D0DF
:102DC000E069022848D1002020490866FFF714FC7A
:102DD000054606E0FFF710FC401B022801D903203E
:102DE0005DE61948006800F000700028F2D1206A02
:102DF000B0F5803F07D11448406820F40030A16846
:102E0000084311494860D4E9080108430E4949685C
:102E100021F4741108430C49486001200B490866ED
:102E2000FFF7EAFB054607E02DE0FFF7E5FB401B57
:102E3000022801D9032032E60348006800F0007040
:102E40000028F2D01FE000000010024000004242C3
:102E5000800442420070004000200C490866FFF7E1
:102E6000CBFB054606E0FFF7C7FB401B022801D954
:102E7000032014E60648006800F000700028F2D134
:102E800001E001200BE6002009E6000000004242BC
:102E90000010024070B504462546681EB0F1807FE0
:102EA00001D301200FE0681E4FF0E02148610F219F
:102EB0004FF0FF3001F0AAF900204FF0E0218861C7
:102EC00007200861002070BD70477047024600BFB0
:102ED00092F83C00012801D102207047012082F8BD
:102EE0003C0000BF022082F83D001068406820F0DE
:102EF000700013685860106840680B6818431368C6
:102F000058601068806820F080001368986010682E
:102F100080684B68184313689860012082F83D0070
:102F200000BF002082F83C0000BF00BFD5E710B50D
:102F300004460CB9012010BD94F83D0028B90020CA
:102F400084F83C00204600F00DF8022084F83D0093
:102F5000211D206801F028FA012084F83D0000209E
:102F6000E9E7000038B5044659492068884216D17F
:102F700000BF5848806940F400605649886108469F
:102F8000806900F40060009000BF00BF002211467D
:102F90001920FFF7B4FB1920FFF7A4FB97E0206886
:102FA000B0F1804F0DD100BF4A48C06940F0010028
:102FB0004849C8610846C06900F00100009000BFA0
:102FC00085E04549206888420DD100BF4148C0696D
:102FD00040F002003F49C8610846C06900F00200A5
:102FE000009000BF73E03D49206888420DD100BFCA
:102FF0003848C06940F004003649C8610846C069D5
:1030000000F00400009000BF61E03549206888426C
:103010000DD100BF2F48C06940F008002D49C8619C
:103020000846C06900F00800009000BF4FE02D493D
:103030002068884216D100BF2648C06940F01000C1
:103040002449C8610846C06900F01000009000BF24
:1030500000BF002211463620FFF751FB3620FFF754
:1030600041FB34E020492068884216D100BF19484E
:10307000C06940F020001749C8610846C06900F0E7
:103080002000009000BF00BF002211463720FFF74C
:1030900036FB3720FFF726FB19E0144920688842E9
:1030A00015D100BF0B48806940F400500949886180
:1030B0000846806900F40050009000BF00BF002265
:1030C00011462C20FFF71BFB2C20FFF70BFB38BD14
:1030D000002C0140001002400004004000080040A5
:1030E000000C00400010004000140040003401407B
:1030F0000146022081F83D000868006840F00100A8
:103100000A681060012081F83D00002070470146E8
:103110000868C06840F001000A68D060086800686C
:1031200040F001000A6810600020704701460868FE
:10313000C06820F001000A68D06000BF0868006A1B
:1031400041F21112104050B90868006A9210104004
:1031500028B90868006820F001000A68106000BF04
:10316000002070472DE9F04104460D46002600BFBF
:1031700094F83C00012802D10220BDE8F081012032
:1031800084F83C0000BF022084F83D002068866877
:1031900026F0770626F47F46206886602868502847
:1031A0003BD00CDC202860D004DC002853D0102851
:1031B00065D155E030285DD0402860D141E06028DD
:1031C00035D070280DD0B0F5805F03D0B0F5005F2A
:1031D00055D115E02068806820F0070021688860DC
:1031E0004EE0D5E902136A68206801F029F92068E9
:1031F000866826F0770646F07706206886603FE00E
:10320000D5E902136A68206801F01AF9206880681D
:1032100040F480402168886032E0EA68696820688C
:1032200001F076F95021206801F016F928E0EA68EB
:103230006968206801F081F96021206801F00CF9CB
:103240001EE0EA686968206801F062F940212068A0
:1032500001F002F914E00021206801F0FDF80FE010
:103260001021206801F0F8F80AE02021206801F020
:10327000F3F805E03021206801F0EEF800E000BF2F
:1032800000BF012084F83D0000BF002084F83C000E
:1032900000BF00BF71E7704710B5044620680069A1
:1032A000C0F34000D8B12068C068C0F34000B0B19E
:1032B0006FF0020021680861012020772068806992
:1032C00000F0030018B12046FFF7E5FF05E02046B7
:1032D00000F0ADF8204600F0ABF800202077206821
:1032E0000069C0F38000D8B12068C068C0F38000D6
:1032F000B0B16FF0040021680861022020772068D7
:10330000806900F4407018B12046FFF7C4FF05E063
:10331000204600F08CF8204600F08AF80020207744
:1033200020680069C0F3C000D8B12068C068C0F34D
:10333000C000B0B16FF00800216808610420207758
:103340002068C06900F0030018B12046FFF7A3FF12
:1033500005E0204600F06BF8204600F069F80020F8
:10336000207720680069C0F30010D8B12068C068D9
:10337000C0F30010B0B16FF01000216808610820A0
:1033800020772068C06900F4407018B12046FFF72C
:1033900082FF05E0204600F04AF8204600F048F899
:1033A000002020772068006900F0010058B12068F3
:1033B000C06800F0010030B16FF0010021680861C1
:1033C000204600F037F820680069C0F3C01058B1FB
:1033D0002068C068C0F3C01030B16FF08000216871
:1033E00008612046FFF770FD20680069C0F3801077
:1033F00058B12068C068C0F3801030B16FF0400051
:1034000021680861204600F07AF820680069C0F35E
:10341000401058B12068C068C0F3401030B16FF060
:103420002000216808612046FFF74FFD10BD70475E
:103430007047000010B5044614492068884202D144
:1034400004F04EF820E02068B0F1804F1CD0104905
:103450002068884218D00F492068884214D00E494D
:103460002068884210D00D49206888420CD00C4951
:103470002068884202D104F038F805E00949206844
:10348000884201D104F036F810BD0000002C014044
:103490000004004000080040000C00400010004004
:1034A000001400400034014070B504460D4600BFD2
:1034B00094F83C00012801D1022070BD012084F85D
:1034C0003C0000BF022084F83D002946204600F061
:1034D000CDFF2068C06820F040002168C8602068E7
:1034E000C06820F480402168C860012084F83D0055
:1034F00000BF002084F83C0000BF00BFDDE770473C
:10350000704700002DE9F0470446206805682068F0
:10351000C668206847694FF00008C14605F00F08EB
:10352000B8F1000F0AD105F0200038B106F02000F4
:1035300020B1204601F09DF8BDE8F087B8F1000FFA
:103540006DD007F0010018B906F49070002866D01D
:1035500005F0010030B106F4807018B1E06B40F066
:103560000100E06305F0040030B107F0010018B17C
:10357000E06B40F00200E06305F0020030B107F0BC
:10358000010018B1E06B40F00400E06305F00800B2
:1035900030B107F0010018B1E06B40F00800E063C3
:1035A000E06B68B305F0200028B106F0200010B1F0
:1035B000204601F05EF820684069C0F38019E06B96
:1035C00000F0080010B9B9F1000F22D0204601F038
:1035D00026F82068406900F04000B0B120684069DA
:1035E00020F0400021684861606B50B11748616B62
:1035F0004863606BFEF70AFB10B1606B416B884754
:103600000CE02046FFF77CFF08E02046FFF778FF3C
:1036100004E02046FFF774FF0020E0638CE705F02C
:10362000800030B106F0800018B1204601F058F952
:1036300082E705F0400030B106F0400018B12046A6
:1036400000F0FDFF78E700BF76E70000674500085F
:1036500010B504460CB9012010BDA06900B100E00E
:1036600000BF94F8390028B9002084F838002046BB
:1036700000F028F8242084F839002068C06820F47D
:1036800000502168C860204601F046F820680069B3
:1036900020F49040216808612068406920F02A00E9
:1036A000216848612068C06840F400502168C86003
:1036B0000020E063202084F8390084F83A000020DC
:1036C000CAE7000010B586B00446002002900390BF
:1036D0000490059088492068884252D100BF8748ED
:1036E000806940F48040854988610846806900F41B
:1036F0008040019000BF00BF00BF0846806940F0D5
:10370000040088610846806900F00400019000BF51
:1037100000BF48150290022003900320059002A9E3
:103720007748FEF7BBFD4FF48060029000200390C5
:10373000049002A97248FEF7B1FD72487249086010
:10374000002048600021704881608021C160002114
:1037500001614161202181610021C161FEF7F6FC18
:1037600008B1FDF71EFE00BF67486063446200BFFA
:10377000002211462520FEF7C2FF2520FEF7B2FFEA
:10378000B8E062492068884252D100BF5B48C069F6
:1037900040F400305949C8610846C06900F400305F
:1037A000019000BF00BF00BF0846806940F00400E0
:1037B00088610846806900F00400019000BF00BFE6
:1037C00004200290022003900320059002A94C4897
:1037D000FEF764FD0820029000200390049002A9E7
:1037E0004748FEF75BFD4748143049490860002010
:1037F00048600021464881608021C160002101614C
:103800004161202181610021C161FEF79FFC08B167
:10381000FDF7C7FD00BF3E486063446200BF002261
:1038200011462620FEF76BFF2620FEF75BFF61E0C6
:103830003849206888425DD100BF3048C06940F4F3
:1038400080202E49C8610846C06900F4802001909C
:1038500000BF00BF00BF0846806940F020008861BB
:103860000846806900F02000019000BF00BF881565
:103870000290022003900320059002A92648FEF73B
:103880000DFD4FF40070029000200390049002A9F7
:103890002148FEF703FD00BF2049486820F03000B2
:1038A00040F0E06040F03000486000BF1548283824
:1038B0001B49086000204860002119488160802170
:1038C000C160002101614161202181610021C1614C
:1038D000FEF73CFC08B1FDF764FD00BF10486063D3
:1038E000446200BF002211462720FEF708FF272070
:1038F000FEF7F8FE06B010BD00380140001002408F
:103900000008014058000240B40700200044004075
:10391000F80700200048004000140140000001406A
:103920003C08002077B581B00446154694F83A006B
:10393000202850D1029800B115B9012004B070BD03
:1039400000BF94F83800012801D10220F6E70120D9
:1039500084F8380000BF0298A062A5850020E063CB
:10396000222084F83A001D48616B88621C48616B14
:10397000C8621C48616B08630020616B486302AE3B
:1039800032682368191D2B46606BFEF725FC00BFCB
:103990000020009020680068009020684068009037
:1039A00000BF00BF00BF002084F8380000BF2068BF
:1039B000C06840F480702168C8602068406940F0A9
:1039C0000100216848612068406940F0400021689A
:1039D00048610020B2E70220B0E70000CB450008B4
:1039E000114600087B45000810B504460B492068C5
:1039F000884203D1002003F0E7FA0EE0084920686E
:103A0000884203D1012003F0DFFA06E0054920686F
:103A1000884202D1022003F0D7FA10BD00380140DD
:103A2000004400400048004070472DE9F843044638
:103A30000D4616461F464FF0000994F8390020281D
:103A40005CD105B116B90120BDE8F88300BF94F838
:103A50003800012801D10220F6E7012084F838005F
:103A600000BF0020E063212084F83900FEF7C4FD88
:103A70008146A684E6842BE0E08C401EE084A068AA
:103A8000B0F5805F16D14B4600228021204600977A
:103A900000F05AFF08B10320D6E7A846B8F80000A6
:103AA000C0F3080021684860206908B9AD1C0FE028
:103AB0006D1C0DE04B46002280212046009700F04F
:103AC00043FF08B10320BFE715F8010B21684860E8
:103AD000E08C0028D0D14B460022402120460097A0
:103AE00000F032FF08B10320AEE7202084F839004F
:103AF00000BF002084F8380000BFA5E70220A3E73C
:103B0000704700BFFEE7000010B50E480E49086080
:103B10000C20486000210C488160C1604FF4803166
:103B200001614901416100210176012141768176DF
:103B3000C176002101774177FDF7B4FE08B1FDF7AA
:103B400030FC10BD00640040CC04002008B500BF6C
:103B50001248406940F00100104948610846406938
:103B600000F00100009000BF00BF002211460D20B0
:103B7000FEF7C5FD0D20FEF7B5FD002211460F2012
:103B8000FEF7BDFD0F20FEF7ADFD0022114610200F
:103B9000FEF7B5FD1020FEF7A5FD08BD00100240A0
:103BA00000B585B00020019002900390049000BF02
:103BB0009148806940F040008F49886108468069DB
:103BC00000F04000009000BF00BF00BF08468069C1
:103BD00040F0100088610846806900F010000090F5
:103BE00000BF00BF00BF0846806940F080008861C8
:103BF0000846806900F08000009000BF00BF00BF51
:103C00000846806940F0040088610846806900F039
:103C10000400009000BF00BF00BF0846806940F06C
:103C2000080088610846806900F00800009000BF25
:103C300000BF00BF0846806940F480708861084674
:103C4000806900F48070009000BF00BF00BF08468C
:103C5000806940F0200088610846806900F02000FB
:103C6000009000BF00BF00224FF6FF716348FEF7CF
:103C7000BDFC002243F6CE716148FEF7B7FC00227E
:103C80004DF2FF115F48FEF7B1FC002248F203112C
:103C90005D48FEF7ABFC00224FF603615B48FEF780
:103CA000A5FC00224FF6F0715948FEF79FFC002258
:103CB00045F6FF415748FEF799FC4FF6FF7001901B
:103CC00001200290002003900220049001A94B489B
:103CD000FEF7E4FA43F6CE70019001200290002036
:103CE00003900220049001A94548FEF7D7FA4DF24F
:103CF000FF10019001200290002003900220049008
:103D000001A94048FEF7CAFA48F2031001900120C9
:103D10000290002003900220049001A93A48FEF787
:103D2000BDFAF020019000200290039001A93648CE
:103D3000FEF7B4FA3020019000200290039001A910
:103D40002F48FEF7ABFA0320019000200290039069
:103D500001A92F48FEF7A2FA4FF40050019000206D
:103D60000290039001A92748FEF798FA4FF60360E6
:103D7000019001200290002003900220049001A9EC
:103D80002248FEF78BFA4FF6F07001900120029066
:103D9000002003900220049001A91D48FEF77EFA3E
:103DA00045F6FF4001900120029000200390022080
:103DB000049001A91748FEF771FA4FF400400190F2
:103DC00000200290039001A91248FEF767FA4FF411
:103DD000FE70019000200290039001A90B48FEF7AD
:103DE0005DFA082001900320029001A90848FEF71F
:103DF00055FA05B000BD0000001002400018014057
:103E000000100140001C014000080140002001405A
:103E1000000C01400014014000B587B00020039061
:103E2000049005900690019002901548154908608D
:103E30004720486000211348816040F2E731C160AB
:103E40000021016141618161FFF771F808B1FDF75F
:103E5000A8FA4FF48050039003A90A48FFF782F9AB
:103E600008B1FDF79EFA00200190029001A90548D3
:103E7000FFF72CF808B1FDF794FA07B000BD000079
:103E8000002C0140F404002000B587B0002003900E
:103E9000049005900690019002904FF080401449E4
:103EA0000860482048600021114881604FF6FF718A
:103EB000C160002101618161FFF739F808B1FDF7A8
:103EC00070FA4FF48050039003A90948FFF74AF9AC
:103ED00008B1FDF766FA202001908020029001A928
:103EE0000348FEF7F3FF08B1FDF75BFA07B000BD2A
:103EF0003405002000B587B0142102A8FCF74BF967
:103F00000020009001901548154908600020486085
:103F10000021134881604FF6FF71C16000210161EB
:103F20008161FFF704F808B1FDF73BFA0720029022
:103F30001020039002A90A48FFF7B6FA08B1FDF76E
:103F400030FA202000908020019069460448FEF756
:103F5000BDFF08B1FDF725FA07B000BD0004004021
:103F60007405002000B587B0142102A8FCF713F9EE
:103F70000020009001901548154908600020486015
:103F80000021134881604FF6FF71C160002101617B
:103F90008161FEF7CCFF08B1FDF703FA072002901C
:103FA0002020039002A90A48FFF77EFA08B1FDF726
:103FB000F8F9202000908020019069460448FEF71F
:103FC00085FF08B1FDF7EDF907B000BD000800401E
:103FD000B405002000B587B0142102A8FCF7DBF877
:103FE00000200090019015481549086000204860A5
:103FF0000021134881604FF6FF71C160002101610B
:104000008161FEF794FF08B1FDF7CBF9072002901C
:104010003020039002A90A48FFF746FA08B1FDF7DD
:10402000C0F900200090019069460548FEF74EFF58
:1040300008B1FDF7B6F907B000BD0000000C004064
:10404000F40500201CB50020009001900E480F4997
:1040500008604720486000210C48816040F2E73149
:10406000C16000218161FEF762FF08B1FDF799F997
:1040700000200090019069460448FEF727FF08B130
:10408000FDF78FF91CBD0000001000403406002031
:104090001CB50020009001900E480F490860472091
:1040A000486000210C48816040F2E731C160002186
:1040B0008161FEF73CFF08B1FDF773F90020009025
:1040C000019069460448FEF701FF08B1FDF769F960
:1040D0001CBD0000001400407406002000B587B02D
:1040E00000200390049005900690019002901548DE
:1040F000154908604720486000211348816040F25C
:10410000E731C1600021016141618161FEF70FFF6C
:1041100008B1FDF746F94FF48050039003A90A480F
:10412000FFF720F808B1FDF73CF90020019002905C
:1041300001A90548FEF7CAFE08B1FDF732F907B03C
:1041400000BD000000340140B406002010B50B484B
:104150000B4908604FF4E130486000210848816055
:10416000C16001610C21416100218161C161FFF7E2
:104170006FFA08B1FDF715F910BD000000380140D5
:10418000F406002010B50B480B4908604FF4E130ED
:104190004860002108488160C16001610C214161D3
:1041A00000218161C161FFF753FA08B1FDF7F9F809
:1041B00010BD0000004400403407002010B50B483B
:1041C0000B4908604FF4E1304860002108488160E5
:1041D000C16001610C21416100218161C161FFF772
:1041E00037FA08B1FDF7DDF810BD000000480040C7
:1041F0007407002000BFFEE7704700000248006817
:10420000C0F30220704700000CED00E010B500285C
:1042100007DA0A07140E054A00F00F031B1FD454D7
:1042200003E00A07130E024A135410BD18ED00E014
:1042300000E400E000BF00BF00BFBFF34F8F00BF2E
:1042400000BF00BF0948006800F4E0600849084367
:10425000001D0649086000BF00BF00BFBFF34F8FBD
:1042600000BF00BF00BF00BF00BFFDE70CED00E0D6
:104270000000FA057047000008B508490968C90838
:104280004FF47A72B1FBF2F14143009100BF00BFDD
:1042900000994A1E00920029F9D108BD0C000020A7
:1042A000704710B5FEF7AEF910BD00B58FB02821EC
:1042B00005A8FBF770FF14216846FBF76CFF01208F
:1042C000059000040690002007900120099002202C
:1042D0000C90C1030D914FF4E0110E9105A8FEF76B
:1042E000B9FB08B1FDF75DF80F20009002200190A6
:1042F000002002904FF4806003900020049002217F
:104300006846FEF74FFA08B1FDF74BF80FB000BD55
:104310001148006840F001000F49086008464068F5
:104320000E4908400C494860084600680C4908409E
:10433000094908600846006820F4802008600846A3
:10434000406820F4FE0048604FF41F008860C803F6
:104350000449086070470000001002400000FFF8A8
:10436000FFFFF6FE08ED00E010B50248FEF794FFEF
:1043700010BD0000F404002010B50248FEF78CFFC9
:1043800010BD00003406002010B50248FEF784FF7F
:1043900010BD00007406002010B50248FEF77CFF37
:1043A00010BD0000B4060020002202681F4B984296
:1043B0000ED01F4B98420BD0B0F1804F08D01D4B50
:1043C000984205D01C4B984202D01C4B984203D116
:1043D00022F070024B681A43144B98420ED0144BD3
:1043E00098420BD0B0F1804F08D0124B984205D0C4
:1043F000114B984202D0114B984203D122F44072E3
:10440000CB681A4322F080024B691A4302608B6822
:10441000C3620B688362054B984202D0044B9842FA
:1044200001D10B690363012343617047002C0140F4
:10443000003401400004004000080040000C00402F
:1044400030B50C460021816821F47F4142EA032502
:1044500025432943816030BD0A460021816821F04F
:10446000700142F007031943816070472DE9F04164
:1044700004460D4600260027B0462068866826F0D0
:1044800070066868064326F0070628680643206819
:104490008660686800F00F01002935D100110828F6
:1044A00032D2DFE800F02D2E2F300B212704D5E982
:1044B0000313AA682068FFF7C3FF26E02068D0F83E
:1044C00020802068006A20F00100216808622068CE
:1044D000876927F0F007286947EA00172068876195
:1044E0002068C0F8208010E02A69A968206800F0E0
:1044F0000FF80AE02A69A968206800F01EF804E0B5
:1045000003E002E001E000E000BF00BFBDE8F08191
:1045100030B50B46144600210022026A056A25F0D8
:1045200001050562816921F0F00141EA041122F0E0
:104530000A021A438161026230BD30B50B4614464F
:1045400000210022056A25F0100505628169026AD2
:1045500021F4704141EA043122F0A00242EA031240
:104560008161026230BD70B505466C6A0020E0854D
:10457000E0842046FEF7C4FF70BD70B506460025F6
:10458000746A20684069C0F3C01594F83900212886
:1045900005D125B10020E084204600F060F82068B5
:1045A0004069C0F3801594F83A00222805D125B15E
:1045B0000020E085204600F032F8E06B40F010006B
:1045C000E0632046FEF79CFF70BD70B505466C6A3F
:1045D0002868006800F02000B0B90020E08520685D
:1045E000C06820F480702168C8602068406920F0AD
:1045F0000100216848612068406920F0400021687E
:104600004861202084F83A002046FFF7EDF970BD9C
:1046100070B50446656A2846FFF706FA70BD016862
:10462000C96821F490710268D1600168496921F07C
:10463000010102685161202180F83A10704710B5DD
:1046400004462068C06820F040002168C86020202F
:1046500084F839002046FFF753FA002010BD0168A6
:10466000C96821F0C0010268D160202180F83910AA
:10467000704770B5044694F83A0022284AD1A068E1
:10468000B0F5805F13D1A56A206940B92068406801
:10469000C0F308002880A06A801CA06219E020688E
:1046A0004068C0B22880A06A401CA06211E0206966
:1046B00038B920684068C1B2A26A501CA06211706B
:1046C00007E02068406800F07F01A26A501CA062E9
:1046D0001170E08D401E80B2E085C8B92068C068C6
:1046E00020F020002168C8602068C06820F4807035
:1046F0002168C8602068406920F001002168486195
:10470000202084F83A002046FFF76EF9002070BDA3
:104710000020FCE70220FAE72DE9F04104460025DD
:104720002068006920F44050E1680843216808616E
:104730002169A06808436169084305432068C0688F
:1047400041F20C61884328432168C86020684069B1
:1047500020F44070A1690843216848615F492068DE
:1047600088425CD1FEF71CF900EBC00101EB0010A0
:1047700061688900B0FBF1F6FEF712F900EBC001A9
:1047800001EB001061688900B0FBF1F06421B0FB1F
:10479000F1F000EBC00101EB0010A6EB800032212C
:1047A00001EB00106421B0FBF1F000F0F006FEF721
:1047B000F7F800EBC00101EB001061688900B0FB65
:1047C000F1F06421B0FBF1F006EB0016FEF7E8F81B
:1047D00000EBC00101EB001061688900B0FBF1F74C
:1047E000FEF7DEF800EBC00101EB00106168890004
:1047F000B0FBF1F06421B0FBF1F000EBC00101EB84
:104800000010A7EB8000322101EB00106421B0FB07
:10481000F1F000F00F003044216888605BE0FEF7A3
:10482000AFF800EBC00101EB001061688900B0FB3C
:10483000F1F6FEF7A5F800EBC00101EB001061688E
:104840008900B0FBF1F06421B0FBF1F000EBC00196
:1048500001EB0010A6EB8000322101EB0010642177
:10486000B0FBF1F000F0F006FEF78AF800EBC001B3
:1048700001EB001061688900B0FBF1F06421B0FB2E
:10488000F1F006EB0016FEF77BF800EBC00101EB40
:10489000001061688900B0FBF1F7FEF771F800EBDA
:1048A000C00101EB001061688900B0FBF1F06421E8
:1048B000B0FBF1F000EBC00101EB0010A7EB8000B2
:1048C000322101EB00106421B0FBF1F000F00F0089
:1048D000304421688860BDE8F08100000038014064
:1048E000014691F8390021282CD18868B0F5805F05
:1048F0000FD10A6A1088C0F308000B685860086975
:1049000018B9086A801C086209E0086A401C08623D
:1049100005E00B6A581C086218780B685860C88C50
:10492000401E80B2C88458B90868C06820F0800072
:104930000B68D8600868C06840F040000B68D86019
:10494000002070470220FCE72DE9F04104460D46A7
:1049500017469846069E21E0701CF8B12EB1FDF76F
:104960004BFEA0EB0800B04218D92068C06820F4C4
:10497000D0702168C8602068406920F0010021687B
:104980004861202084F8390084F83A0000BF0020F4
:1049900084F8380000BF0320BDE8F081206800687B
:1049A0002840A84201D1012000E00020B842D3D025
:1049B0000020F1E710B50248FEF7A4FD10BD00008D
:1049C000F406002010B50248FEF79CFD10BD000063
:1049D0003407002010B50248FEF794FD10BD00001A
:1049E0007407002010B50248FCF735FE10BD00002A
:1049F000CC04002010B50248FCF72DFE10BD0000CD
:104A0000CC04002000BFFEE70FB4054B10B503A98E
:104A1000044A029800F06AF910BC5DF814FB00002B
:104A2000B1750008C4040020490050EAC12018BF35
:104A300004204A0D18BF40F0010040F2FF72B2EBB3
:104A4000515F08BF40F00200012808BF05207047F1
:104A50002DE9F0414F1E00EBC7010446D1E90001EA
:104A600015461E4637F006020DD02A463346FBF7A0
:104A7000E0FE7F1E04EBC703D3E90023FBF732FE01
:104A800037F00602F1D1022F25D0042F13D0062FC4
:104A900018BFBDE8F0812A463346FBF7CAFED4E9C9
:104AA0000A23FBF71FFE2A463346FBF7C2FED4E972
:104AB0000823FBF717FE2A463346FBF7BAFED4E974
:104AC0000623FBF70FFE2A463346FBF7B2FED4E976
:104AD0000423FBF707FE2A463346FBF7AAFED4E978
:104AE0000223FBF7FFFD2A463346FBF7A2FED4E97B
:104AF0000023BDE8F041FBF7F5BD0122FCF776B9D4
:104B0000FBF7F0BD0022134610461146FBF703BF2A
:104B1000024A00201107FCF769B9000001FDFFFF00
:104B20000121FCF7FAB800210846FBF79DBD02E021
:104B300008C8121F08C1002AFAD170477047002028
:104B400001E001C1121F002AFBD170470149086032
:104B500070470000C80400202DE9FF5F82B00021EB
:104B6000DDE90430020DDDF840B0034318D044F60F
:104B70001050A2F2FF3242431514119801281FD0A1
:104B8000A5EB0B00401C5FEA000A4FF000064E4FF9
:104B9000DFF83891B046504615D5CAF1000413E04D
:104BA000119801244AA3012801D16FEA0B01029850
:104BB000119AC0E90031C0E9024206B0BDE8F09F99
:104BC000CBF10000DFE704460021404A491842EBE0
:104BD0000450CDE9001012E0E00707D032463B4612
:104BE00040464946FBF725FE8046894632463B460D
:104BF00010461946FBF71DFE06460F466410002CB2
:104C0000EAD1DDE90401DDE90023BAF1000F06DA9B
:104C1000FBF70FFE42464B46FBF70BFE05E0FBF7AA
:104C20007AFE42464B46FBF776FE04460E460022CD
:104C3000284BFBF757FF03D84FF0FF30014607E042
:104C40000022254B20463146FBF74CFDFCF742F98C
:104C5000102409E0002C0ADB0A220023FBF7A0FF46
:104C6000039B30321A55641E50EA0102F2D1641CD3
:104C7000039AC4F111031444119A012A03D00122AA
:104C800008430DD10AE0084304D000204FF0110B77
:104C9000119072E7A3EB0B056D1E0DE05B4504DD83
:104CA0004FF0000205F1010504E003DA4FF00002C5
:104CB000A5F10105002AECD002981199C0E9023152
:104CC000C0E9004579E70000000014400000F03F13
:104CD000300000000000F0430000E03F30380A28B8
:104CE00001D2012070470020704700002DE9FF4FDE
:104CF00095B09B468946064600250FE2252877D1C8
:104D000000242746F84A0121059400E0044316F8E0
:104D1000013F203B01FA03F01042F7D130782A28F6
:104D200011D06FF02F033078A0F13002092A16D885
:104D3000059A44F0020402EB820203EB42021044A3
:104D4000761C0590EFE759F8042B0592002A03DA48
:104D5000504244F40054059044F00204761C30782C
:104D60002E2816D116F8010F44F004042A280DD07D
:104D70006FF02F023078A0F13003092B09D807EB30
:104D8000870302EB4303C718761CF3E759F8047B4B
:104D9000761C30786C280FD006DC4C2817D0682899
:104DA0000DD06A2814D104E0742810D07A280FD1CD
:104DB0000DE044F400140AE044F4801401E044F4EB
:104DC00040147278824202D104F58014761C761C5D
:104DD000307866280BD013DC582877D009DC0028FF
:104DE00075D04528F6D04628F4D047281AD19DE141
:104DF00018E0632835D0642879D0652812D195E170
:104E0000702873D008DC6728F1D069286FD06E282D
:104E10000DD06F2806D1B5E073282CD0752875D039
:104E2000782874D05A46179990476D1C75E1C4F3E1
:104E30000250022809D003280DD0D9F80010042808
:104E40000DD00D6009F1040967E1D9F80010EA17E7
:104E5000C1E90052F6E7D9F800100D80F2E70D70B5
:104E6000F0E719F8041B8DF8001000208DF8010000
:104E7000EA46012003E059F804AB4FF0FF30610728
:104E80004FF0000102D40DE008F101018846B9425B
:104E90000FDA8045F8DB1AF808100029F4D108E091
:104EA00008F1010188468142FADB1AF8081000294E
:104EB000F6D105985B46A0EB080721463846179ABD
:104EC00000F094FA284400EB080507E04DE029E1E2
:104ED0000DE01AF8010B5A4617999047B8F10108EE
:104EE000F7D25B4621463846179A13E142E00A2280
:104EF0000092C4F302524FF0000A022A08D059F877
:104F000004CB032A4FEAEC710AD00DE029E02AE035
:104F100009F1070121F00702F2E802C1914609E018
:104F20000FFA8CFC4FEAEC71042A03D14FFA8CFC87
:104F30004FEAEC71002907DA0A460021DCF1000C87
:104F400061EB02012D2202E0220504D52B228DF80F
:104F50000420012203E0E20701D02022F7E7904677
:104F600059E00A2102E010220DE010214FF0000A62
:104F700000910BE010224FF0000A44F004040827CF
:104F8000009203E008224FF0000A0092C4F302529C
:104F9000022A05D059F804CB0021032A08D009E0E1
:104FA00009F1070121F00702F2E802C1914605E08C
:104FB0001FFA8CFC042A01D10CF0FF0C4FF0000802
:104FC000220728D5702806D0009B83F0100353EAEF
:104FD0000A0305D00EE040228DF80420012208E0EB
:104FE0005CEA010206D030228DF804208DF805001D
:104FF00002229046009B83F0080353EA0A030AD179
:105000005CEA010201D1620705D530228DF8042047
:105010004FF001087F1E582804D034A003900EA83A
:1050200002900DE036A0F9E753466046009AFBF780
:10503000B7FD84460398825C0298401E029002707D
:105040005CEA0100F0D1029806A9081A00F1200AD2
:10505000600702D524F4803400E00127574502DDC3
:10506000A7EB0A0000E0002000EB0A010090059881
:105070004144401A0590E00306D45B462146179A46
:10508000059800F0B3F90544002706E001A85A4648
:10509000C05D179990476D1C7F1C4745F6DBE00308
:1050A0000CD55B462146179A059800F09FF90544F8
:1050B00004E030205A46179990476D1C0099481E0D
:1050C00000900029F5DC08E0029802995A46007821
:1050D000491C0291179990476D1CBAF10001AAF181
:1050E000010AF1DC65E100000928010030313233AA
:1050F0003435363738396162636465660000000014
:1051000030313233343536373839414243444546FD
:105110000000000000F058F90544761C30780028A3
:105120007FF4ECAD19B02846BDE8F08F620700D4DB
:10513000062709F1070222F0070CFCE80223E146EA
:1051400003F000485FEA080C02D00FF2702C0DE06B
:105150005FEA045C02D50FF2682C07E05FEAC47CCA
:1051600002D00FF2602C01E0AFF2700C4FF0FF386C
:1051700023F00043CDF850C065280CD006DC45284C
:1051800009D046281DD047283DD13DE0662818D0DB
:1051900067287ED138E00021112F01DB112000E0CB
:1051A000781CCDE9000106A90EA8FFF7D5FCDDE9C2
:1051B0000F010E9A03910021009207F1010A049158
:1051C0004DE04FF000400097CDE9011006A90EA870
:1051D000FFF7C2FCDDE90F0203920E9B119900223A
:1051E000DDF80CA00093049211B9791C00EB010AC0
:1051F000B7EB0A0004D4C0F1FF3007F1010A0490B4
:10520000AAEB0700019044E0012F00DA01270021FA
:10521000112F01DD112000E03846CDE9000106A97B
:105220000EA8FFF799FCDDE90F010E9A039100210A
:1052300004910092BA4621070CD40399514500DA33
:105240008A46BAF1010F05DD009AAAF10101515C0D
:10525000302908D0B84202DA10F1040F06DA012131
:10526000CDE9011015E0AAF10101E9E7002805DC0C
:10527000049901440491AAEB000102E0411C51454C
:1052800000DD8A460499401A401C01904FF000400E
:105290000290200704D40198504501DBCDF804802A
:1052A00000208DF84F0002980DF14F07B0F1004F2C
:1052B00025D02B200E9002984FF0020800280CDA1F
:1052C000404202902D200E9007E00A210298FBF741
:1052D00051FC3031029007F8011DB8F10001A8F12E
:1052E0000108F2DC02980028EFD1791E0E980870B0
:1052F000307800F0200040F0450007F8020D12A8B9
:10530000C01B00F107081498007800B1012000EBE1
:105310000A01019801EBE07105984144401A401ED2
:105320000590E00306D45B462146179A059800F0E5
:105330005DF805441498007818B15A4617999047BB
:105340006D1CE00324D55B462146179A059800F0B2
:105350004DF805441CE00498002807DBDDE9030153
:10536000884203DD0098405C179901E017993020CE
:105370005A469047049805F10105401C0490019895
:10538000401E019004D12E205A46179990476D1C5B
:10539000BAF10001AAF1010ADDDC05E017F8010B02
:1053A0005A46179990476D1CB8F10001A8F1010801
:1053B000F4DC5B462146179A0598ABE62D00000009
:1053C0002B000000200000002DE9F04104460025DC
:1053D0001E461746880404D405E039462020B0470D
:1053E0006D1C641EF9D52846BDE8F0812DE9F04119
:1053F000044600251E469046C80301D5302700E02C
:105400002027880404D505E041463846B0476D1C86
:10541000641EF9D52846BDE8F08100002DE9F04D65
:105420000546DFF8388221F000408D4F82B00C46EF
:10543000404520DBA0EB080129430BD08949884275
:1054400001DC10D17DB102B028462146BDE8F04D07
:10545000FFF753BB002CC7BF0020014682483946E6
:1054600002B0BDE8F08D0120FFF770FB02B0BDE88F
:10547000F04DFFF747BB7D49884244DA7C498142C1
:10548000A1BF79487B4902B0BDE8F08D2A4623468A
:1054900010461946FBF7CDF98346024676480E467C
:1054A0000B4606217844FFF7D3FA5A463346FBF7FA
:1054B000C0F9074671488A465A4633460421784463
:1054C000FFF7C6FA5A463346FBF7B3F900224346C4
:1054D000FBF708F902460B4638465146FBF71BFA24
:1054E0002A462346FBF7A5F9654A664BFBF79EF96A
:1054F0002A462346FBF79AF902B05B4ABDE8F04D15
:105500005C4BFBF793B9002C4FF000024BDA464698
:10551000434628462146FBF7E5F84FF0FF32FBF7FC
:1055200065FC0446024658480D460B460621784461
:10553000FFF78EFA22462B46FBF77BF9804653484D
:105540008A4622462B4604217844FFF781FA2246F8
:105550002B46FBF76EF900223346FBF7C3F80646ED
:105560008B462046294602F057F904460D4632463E
:105570005B4640465146FBF7CEF922462B46FBF7E9
:1055800058F93F4A3F4BFBF74EF922462B46FBF7B3
:10559000A9F80122FBF72AFC02B03B46BDE8F04D1A
:1055A000314AFBF743B92D4B28462146FBF73EF91C
:1055B0004FF0FF32FBF71AFC05460E4602F02CF9BD
:1055C00000270C4680463A460B46FBF78BF882468E
:1055D0008B463A46234610461946FBF72AF92A46D7
:1055E0003346FBF723F952465B46FBF794F98246B4
:1055F00027488B462A46334606217844FFF728FA87
:105600002A463346FBF715F9CDE9000121482A4621
:10561000334604217844FFF71BFA2A463346FBF74A
:1056200008F900220D4BFBF75DF802460B46DDE959
:105630000001FBF770F942462346FBF7FAF85246A1
:105640005B46FBF74FF83A462346FBF74BF802B0B0
:105650000122BDE8F04DFBF7C9BB00000000F03FA0
:10566000FB2109400000F07F182D44540000E03F6A
:105670000000603CFB21F93F7024000086240000FC
:10568000075C143326A6913CE6230000FC230000AF
:105690001A230000302300002DE9F04104464FF0AA
:1056A0001A4000EB4400B0F1C85F204655D84FF0D7
:1056B000FC41B1EB440F1CD224F000404FF07E516E
:1056C000FAF79DFF4FF0FF31FBF727FB054602F08D
:1056D000C9F814F0004F1DBF2C4F2D4E80F0004034
:1056E000002708BF3E464FF04041FAF78BFF0446C3
:1056F00005E0284F284E0146FAF784FF0546274962
:105700002846FAF77FFF2649FAF724FF2946FAF7D9
:1057100079FF2449FAF71EFF2946FAF773FF224959
:10572000FAF718FF2946FAF76DFF2049FAF712FF3A
:10573000804629462046FAF765FF4146FAF762FFA0
:10574000054631462046FAF75AFF2946FAF754FF34
:105750003946BDE8F041FAF7FDBE4FF0CC41B1EB60
:10576000440F84BF1248BDE8F0814FF07F41B1EB98
:10577000440F03D2BDE8F041FFF7D2B90120FFF793
:10578000E5F9BDE8F041FFF7CEB90000000049405F
:1057900022AA7D3A0000C93F22AAFD3924FE1C3D01
:1057A000C78AD83C1E67383D1B93993DAFAA2A3E55
:1057B000DB0FC93F2DE9F84F04460D4621F00040AC
:1057C00000917349814211DC7249884201DC06D1A3
:1057D0002CB120462946BDE8F84FFFF78EB96E4838
:1057E000002DCCBF6D496E49BDE8F88F6D498142EF
:1057F00011DD6D498142D8BF4FF0FF366DDD204687
:105800002946FFF711F9042808BFFFF781F9204660
:105810002946BDE8F88F6549654F25F0004581426E
:1058200033DD6449814219DD002632464FF0804362
:1058300020462946FAF756FF80468A46012220462E
:105840002946FBF7D3FA00223B46FAF7ECFF424623
:105850005346FBF760F804460D463EE00126002261
:10586000BA463B4620462946FAF73CFF80460F469B
:105870000022534620462946FAF7D5FF42463B46CA
:10588000FBF749F804460D4627E04B4981421BDDF2
:10589000DFF828A102260022534620462946FAF7BF
:1058A000C8FF00223B46FAF71DFF80460F46002244
:1058B000534620462946FAF7B6FF42463B46FBF7D9
:1058C0002AF804460D4608E0032622462B4600200F
:1058D0003B49FBF720F804460D4622462B4610466E
:1058E0001946FAF7A6FF8B46824602460B46FAF7A0
:1058F000A0FF07460246334888460B4606217844F7
:10590000FFF7A6F852465B46FAF793FF82462E4809
:105910008B463A46434605217844FFF799F83A46C4
:105920004346FAF786FF02460B46002E504659467C
:105930000CDAFAF7D7FE22462B46FAF77AFF01B0C7
:1059400022462B46BDE8F04FFAF770BFFAF7CAFEC1
:1059500022462B46FAF76DFF1C4A7A4402EBC60337
:10596000D3E90023FAF75FFF22462B46FAF75BFFE5
:10597000174A7A4402EBC603D3E90023FAF756FF2D
:10598000009A002AB8BF81F00041BDE8F88F0000FE
:10599000000010440000F07F182D4454FB21F93F13
:1059A000FB21F9BF0000DC3F0000203E0000F33F78
:1059B0000000F03F0000E63F008003400000F83F99
:1059C0000000F0BFCE2000008C2000002A20000044
:1059D000F21F00002DE9F04D9446CCF1000423F0B5
:1059E00000464CEA0404524F46EAD4749A4688466C
:1059F00021F00042BC4206D8454240EA050442EA92
:105A0000D474BC4204D9BDE8F04D6246FFF778B8C3
:105A1000AAF14055A5F17F6555EA0C040BD002248C
:105A200004EAAA74434DDFF810E144EAD87452EA5C
:105A3000000B04D00CE0BDE8F04DFFF7BBBE002C1E
:105A400014BF012CBDE8F08D022C30D0032C32D0D5
:105A500056EA0C0B0AD0BE4220D1BA4209D126F038
:105A6000804622F080423346114617E000291ADBB7
:105A700025E0DFF8C8B0FB44002C04BFDBE90001DF
:105A8000BDE8F08D012C02BFDBE9000181F000418F
:105A9000BDE8F08D022C0AD0032C0CD0BA4212D1F2
:105AA000B8F1000F0BDA23482549BDE8F08D2846F0
:105AB0002449BDE8F08D28467146BDE8F08D1D48AB
:105AC0002149BDE8F08D921B12153C2AC4BF19482C
:105AD0001D490EDCBAF1000FBEBF12F13C0F0020D1
